:0300000002003EBD
:0C003E00787FE4F6D8FD75813302008560
:1001AF00E4FF1200357FFF12000312036D1205B535
:1001BF000521E521B4C803E4F521AE10AF117C0091
:1001CF007D6412015AAA07AE10AF117C007D641234
:1001DF00015A7E007F0ACFCDCFCECCCE12015AADC1
:1001EF0007C005AE10AF117C007D0A12015AAB0596
:0C01FF0075250AAF02D00512020B80B477
:0C05E800C0F9A4B0999282F88090BFFF87
:10020B008D238B2475A0E0EF9005E893F58075A006
:10021B00C075800112060A75A0E0E5239005E893EE
:10022B00F58075A0C075800212060A75A0E0E52462
:10023B009005E893F58075A0C075800412060A75C9
:10024B00A0E0E5259005E893F58075A0C0758008C2
:03025B0002060A8E
:10025E008D1D8B1E75A0E0EF9005E893F58075A0BF
:10026E00C075801012060A75A0E0E51D9005E89392
:10027E00F58075A0C075802012060A75A0E0E51EF7
:10028E009005E893F58075A0C075804012060A753A
:10029E00A0E0E51F9005E893F58075A0C0758080FD
:0302AE0002060A3B
:08060A007F0B7EBEDEFEDFFC6B
:0106120022C5
:1000CA0075B0FFE4F514C2C420B30375140420B25A
:1000DA000375140520B10375140620B003751407BF
:1000EA00D2C4C2C220B30375140820B2037514091E
:1000FA0020B10375140A20B00375140BD2C2C2B51D
:10010A0020B30375140C20B20375140D20B10375C6
:10011A00140E20B00375140FD2B5C2B420B3037500
:10012A00141320B20375141220B10375141120B0F0
:07013A0003751410D2B4227A
:0600030075A0808F802231
:0600350075A0A08F8022DF
:1004F300C297E4FEEF30E004D2A38002C2A3D297F6
:0A050300C297EFC313FF0EBE08EA13
:01050D0022CB
:10050E00E4FFFEEFC313FF30A305430780800353C0
:0A051E00077FD297C2970EBE08E9CE
:0105280022B0
:10055D00AE07C293C297D2935306FEAF061204F3B1
:08056D00AF051204F3C2932252
:10052900C293C297D2934307011204F312050EC274
:0905390093C297D297C2A3D2A38A
:010542002296
:05061C000326505923E4
:10041800E4FD7F8E12055DAD267F8012055DAD2758
:100428007F8212055DAD287F8412055D7D807F8EF9
:0304380002055D5D
:10058C007F811205298F267F831205298F277F856E
:06059C001205298F282240
:1005A200D2A1D2A00000000000C2A1000000000001
:0305B200C2A022C2
:0C05F400C2A1D2A00000000000D2A12291
:10045E00EF6004C2A18002D2A10000000000D2A071
:0F046E000000000000C2A0D2A100000000002288
:1004D700D2A10000000000D2A0000000000030A15F
:0C04E70007C2A01205F4C322C2A0D32259
:10043B00E4FEEF30E704D2A18002C2A1000000006D
:10044B0000D2A0EF25E0FF0000000000C2A00EBE0E
:02045B0008E0B7
:01045D00227C
:10047D00E4FED2A00000000000EF25E0FF30A10354
:0E048D00430701C2A000000000000EBE08E4FC
:01049B00223E
:10033C001205A27F9012043B1204D77F0312043BD8
:10034C001204D71205F41205A27F9112043B120479
:10035C00D712047D8F327F0112045E1205F4AF3286
:01036C00226E
:1004BA008F331205A27F9012043B1204D77F401299
:0D04CA00043B1204D7AF3312043B0204D7E9
:1003CE008F2C8D2D1205A27FA012043B1204D7AFE5
:1003DE002C12043B1204D7AF2D12043B1204D71279
:0503EE0005F4020613F6
:02039E008F2EA0
:1003A0001205A27FA012043B1204D7AF2E12043B09
:1003B0001204D71205A27FA112043B1204D7120423
:0D03C0007D8F2F7F0112045E1205F4AF2F18
:0103CD00220D
:080613007F367EC7DEFEDFFC2E
:01061B0022BC
:040575007F057E0080
:10057900EF1FAA0670011E4A60087D0E1DED60F08E
:0205890080FAF6
:01058B00224D
:10000E00C200D2947F0C7E00120579C2947F507E7E
:10001E0000120579D2947F0A7E00120579A294927D
:06002E0000120575A2009E
:0100340022A9
:02049C00A907AE
:10049E00E4FBC294E9139294120575D294E9C31346
:0C04AE00F90BBB08ED7F057E000205790C
:10054300E4FBC294ECC313FCD294309403430480C1
:090553001205750BBB08EBAF04A7
:01055C00227C
:1002F80012000E7FCC12049C7F4412049C7FC87E9F
:100308000012057912000E7FCC12049C7FBE1204E5
:100318009C1205437530008F31120543EFFEE5301E
:100328004206E531FFEEC4F854F0C868FEEFC45445
:030338000F48FF6C
:01033B00229F
:10036D00E5A254CFF5A2E4F5D8F5E9F5F9F5D9757F
:10037D001924F51A851AEAE519F5FAE4251AF51A7C
:10038D0074243519F51975DA49D2DED2AFE4F51BAF
:01039D00223D
:1005B500758E80758904758AFF758CFFD28CD2A9DA
:0305C500D2AF2290
:03003B000202B10D
:1002B100C0E0C0D075D008C2D8851AEAE519F5FAB0
:1002C100E4251AF51A74243519F519AF1B151BEF1E
:1002D1007020751B19851710851811E511AE10785E
:1002E10002C333CE33CED8F9F5118E1075170075D0
:0702F1001800D0D0D0E0326C
:03000B000205DB10
:0D05DB00C0E00518E51870020517D0E032E9
:1005C800759850438E01538EFB75D7E875D6FF4357
:0305D8008E102260
:0A060000C2998F993099FDC299222A
:1003F3008B298A2A892BAB29AA2AA92B12014160AE
:1004030013052BE52B7002052A14F9120141FF1283
:05041300060080E2225A
:10004A000201AFE493A3F8E493A34003F68001F21C
:10005A0008DFF48029E493A3F85407240CC8C333B7
:10006A00C4540F4420C8834004F456800146F6DF86
:10007A00E4800B010204081020408090061CE47EF4
:10008A00019360BCA3FF543F30E509541FFEE4937B
:10009A00A360010ECF54C025E060A840B8E493A342
:1000AA00FAE493A3F8E493A3C8C582C8CAC583CA6D
:1000BA00F0A3C8C582C8CAC583CADFE9DEE780BE25
:0106210000D8
:10014100BB010689828A83E0225002E722BBFE02BC
:09015100E32289828A83E49322EF
:10015A00BC000BBE0029EF8DF084FFADF022E4CC89
:10016A00F875F008EF2FFFEE33FEEC33FCEE9DEC52
:10017A00984005FCEE9DFE0FD5F0E9E4CEFD22ED98
:10018A00F8F5F0EE8420D21CFEADF075F008EF2FE2
:10019A00FFED33FD4007985006D5F0F222C398FDD3
:0501AA000FD5F0EA2270
:00000001FF
