:10109200303132333435363738392B2D2A2F3D4112
:0B10A200003031323334353637383936
:0D107500C2918F807F05121082C2927F050C
:0F108200EFD394004009E4FE0EBE6EFC1F80F118
:01109100223C
:0810B900C290121075D29222C0
:10103E00E47B0AFAF9F8AF17AE16AD15AC14120F21
:10104E00BDE47B0AFAF9F8120FBDAE02AF038E0AA9
:0F105E008F0B74A32FF58274103EF583E493FF7C
:08106D00D290121075D29222FC
:1008000075A0FE85A0185318F0E51864F070030277
:1008100009027F0512108285A0185318F0E51864AC
:10082000F060E685A018E5182482602424C06018D2
:1008300024E0600C24F0701E751900751A018016F2
:10084000751900751A02800E751900751A03800655
:10085000751900751A0A7492251AF58274103519E3
:10086000121068E51A640145196010E51A64024522
:10087000196008E51A640345197070E50970337F43
:100880000AFEFDFCAB0FAA0EA90DA80C120E8AA839
:1008900004A905AA06AB07AE19EE3395E0FDFCEB03
:1008A000251AF50FEA3EF50EE93DF50DE83CF50C8D
:1008B000803FE509B4013AE47F0AFEFDFCAB13AAD0
:1008C00012A911A810120E8AA804A905AA06AB073E
:1008D000AE19EE3395E0FDFCEB251AF513EA3EF573
:1008E00012E93DF511E83CF510800675090175081F
:1008F00001E51864F0700302081D85A0185318F074
:1009000080EF75A0FD85A0185318F0E51864F0700D
:1009100003020A047F0512108285A0185318F0E51F
:100920001864F060E685A018E5182483602424C0CC
:10093000601824E0600C24F0701E751900751A040C
:100940008016751900751A05800E751900751A063E
:100950008006751900751A0B7492251AF5827410A9
:100960003519121068E51A640445196010E51A6417
:100970000545196008E51A640645197070E50970A7
:10098000337F0AFEFDFCAB0FAA0EA90DA80C120EB8
:100990008AA804A905AA06AB07AE19EE3395E0FDB7
:1009A000FCEB251AF50FEA3EF50EE93DF50DE83CA6
:1009B000F50C803FE509B4013AE47F0AFEFDFCAB8B
:1009C00013AA12A911A810120E8AA804A905AA0632
:1009D000AB07AE19EE3395E0FDFCEB251AF513EAF3
:1009E0003EF512E93DF511E83CF510800675090168
:1009F000750802E51864F0700302091F85A01853FA
:100A000018F080EF75A0FB85A0185318F0E5186466
:100A1000F07003020B067F0512108285A018531890
:100A2000F0E51864F060E685A018E51824856024D8
:100A300024C0601824E0600C24F0701E7519007545
:100A40001A078016751900751A08800E7519007539
:100A50001A098006751900751A0C7492251AF58208
:100A600074103519121068E51A640745196010E50D
:100A70001A640845196008E51A640945197070E59B
:100A80000970337F0AFEFDFCAB0FAA0EA90DA80C5E
:100A9000120E8AA804A905AA06AB07AE19EE339573
:100AA000E0FDFCEB251AF50FEA3EF50EE93DF50DEC
:100AB000E83CF50C803FE509B4013AE47F0AFEFD0D
:100AC000FCAB13AA12A911A810120E8AA804A9053A
:100AD000AA06AB07AE19EE3395E0FDFCEB251AF53F
:100AE00013EA3EF512E93DF511E83CF51080067574
:100AF0000901750803E51864F07003020A2185A056
:100B0000185318F080EF75A0F785A0185318F0E57A
:100B10001864F07003020E877F0512108285A018FA
:100B20005318F0E51864F060E685A018E5182489EC
:100B3000602324C0601724E0600C24F0701D751938
:100B400000751A0F8015E4F519F51A800E75190055
:100B5000751A0E8006751900751A0D7492251AF50E
:100B60008274103519121068E51A45197075E50977
:100B700070347F0AFEFDFCAB0FAA0EA90DA80C1263
:100B80000E8AA804A905AA06AB07AE19EE3395E0B4
:100B9000FDFCEB251AF50FEA3EF50EE93DF50DE8F3
:100BA0003CF50C020E76E50964016003020E767FC7
:100BB0000AFEFDFCAB13AA12A911A810120E8AA8F6
:100BC00004A905AA06AB07AE19EE3395E0FDFCEBD0
:100BD000251AF513EA3EF512E93DF511E83CF5104A
:100BE000020E76E51A640D4519700975090175083C
:100BF00004020E76E51A640F4519701D7F0112106C
:100C0000B9E4F50FF50EF50DF50CF513F512F51128
:100C1000F510F509F508020E76E51A640E4519601F
:100C200003020E76E5086401706EE50F2513F517D3
:100C3000E50E3512F516E50D3511F515E50C3510F7
:100C4000F514E47F0AFEFDFCAB17AA16A915A8143B
:100C5000C3120ED95003020DBBE47F63FEFDFCAB53
:100C600017AA16A915A814D3120ED94003020DD73E
:100C7000AF17AE16AD15AC14E47B09FAF9F8C31240
:100C80000ED950047F0180027F00C3EF648094E49A
:100C90004003020E76020E40E5086402706FC3E561
:100CA0000F9513F517E50E9512F516E50D9511F54F
:100CB00015E50C9510F514E47F0AFEFDFCAB17AAB0
:100CC00016A915A814C3120ED95003020DBBE47F58
:100CD00063FEFDFCAB17AA16A915A814D3120ED9F2
:100CE0004003020DD7AF17AE16AD15AC14E47B0967
:100CF000FAF9F8C3120ED950047F0180027F00C3B5
:100D0000EF648094E44003020E76020E40E508642E
:100D1000037070AF13AE12AD11AC10AB0FAA0EA9D9
:100D20000DA80C120E8A8F178E168D158C14E47F69
:100D30000AFEFDFCAB17AA16A915A814C3120ED9FA
:100D400050028077E47F63FEFDFCAB17AA16A9155D
:100D5000A814D3120ED94003020DD7AF17AE16ADAB
:100D600015AC14E47B09FAF9F8C3120ED950047FCC
:100D70000180027F00C3EF648094E44003020E769A
:100D8000020E40E50864046003020E76AB13AA125B
:100D9000A911A810AF0FAE0EAD0DAC0C120FBD8F88
:100DA000178E168D158C14E47F0AFEFDFCAB17AA76
:100DB00016A915A814C3120ED95008E51790109261
:100DC000020E6CE47F63FEFDFCAB17AA16A915A802
:100DD00014D3120ED94047E47B64FAF9F8AF17AE8A
:100DE00016AD15AC14120FBD12105C7F05121082E7
:100DF00012103E7F05121082E47B0AFAF9F8AF1751
:100E0000AE16AD15AC14120FBDAE02AF038E0A8F35
:100E10000B74A32FF58274103EF583E4804EAF1758
:100E2000AE16AD15AC14E47B09FAF9F8C3120ED96D
:100E300050047F0180027F00C3EF648094E4503649
:100E400012103E7F05121082E47B0AFAF9F8AF1700
:100E5000AE16AD15AC14120FBDAE02AF038E0A8FE5
:100E60000B74A32FF58274103EF583E493FF1210E8
:100E70006D7F05121082E51864F07003020B238564
:090E8000A0185318F080EFAF1A1E
:010E89002246
:10100100C2927F381210B97F0F1210B97F061210E9
:10101100B97F011210B97F801210B9E4F50FF50EF6
:10102100F50DF50CF513F512F511F510F517F5168B
:0D103100F515F514F509F508F50AF50B2283
:0810C10012100112080080FB6F
:030000000210AD3E
:0C10AD00787FE4F6D8FD75811A0210C1AE
:100E8A00E88FF0A4CC8BF0A42CFCE98EF0A42CFC07
:100E9A008AF0EDA42CFCEA8EF0A4CDA8F08BF0A485
:100EAA002DCC3825F0FDE98FF0A42CCD35F0FCEBE4
:100EBA008EF0A4FEA9F0EB8FF0A4CFC5F02ECD39A9
:0F0ECA00FEE43CFCEAA42DCE35F0FDE43CFC2216
:100FBD00C2D5E830E70FB2D5E4C39BFBE49AFAE45F
:100FCD0099F9E498F8EC30E717B2D5120FF3120F38
:100FDD002BE4C39BFBE49AFAE499F9E498F88003B7
:100FED00120F2B30D50DE4C39FFFE49EFEE49DFD53
:040FFD00E49CFC2252
:100ED900EB9FF5F0EA9E42F0E99D42F0EC6480C890
:060EE90064809845F02230
:100EEF0075F008758200EF2FFFEE33FECD33CDCCBA
:100EFF0033CCC58233C5829BED9AEC99E58298403D
:100F0F000CF582EE9BFEED9AFDEC99FC0FD5F0D619
:100F1F00E4CEFBE4CDFAE4CCF9A88222B800C1B943
:100F2F000059BA002DEC8BF084CFCECDFCE5F0CB81
:100F3F00F97818EF2FFFEE33FEED33FDEC33FCEBBA
:100F4F0033FB10D703994004EB99FB0FD8E5E4F975
:100F5F00FA227818EF2FFFEE33FEED33FDEC33FC62
:100F6F00C933C910D7059BE99A4007EC9BFCE99A56
:100F7F00F90FD8E0E4C9FAE4CCFB2275F010EF2F9B
:100F8F00FFEE33FEED33FDCC33CCC833C810D7079B
:100F9F009BEC9AE899400AED9BFDEC9AFCE899F8D6
:0E0FAF000FD5F0DAE4CDFBE4CCFAE4C8F92269
:00000001FF
