:0A0AD800C0F9A4B0999282F8809052
:040AE20002140000FA
:10096B00E4FAF9F812083C74D82FF582740A3EF5B4
:0D097B0083E493F5807F017E007D007C0009
:100988008F0F8E0E8D0D8C0CE4FFFEFDFCAB0FAAB5
:100998000EA90DA80CD31208CE4051E475130AF520
:1009A80012F511F510E4FFFEFDFCAB13AA12A91114
:1009B800A810D31208CE401AE51324FFF513E51248
:1009C80034FFF512E51134FFF511E51034FFF51089
:1009D80080D3E50F24FFF50FE50E34FFF50EE50D86
:0C09E80034FFF50DE50C34FFF50C809C8D
:0109F40022E0
:1009F5008F0B8E0A8D098C08C290E47BE87A03126E
:100A0500096D7580FFD290C291E47BE87A03F9F80D
:100A1500AF0BAE0AAD09AC0812083CAC00AD01AE97
:100A250002AF037B6412096B7580FFD291C292E419
:100A35007B64FAF9F8AF0BAE0AAD09AC0812083CB5
:100A4500AC00AD01AE02AF037B0A12096B7580FFE6
:100A5500D292C293E47B0AFAF9F8AF0BAE0AAD095C
:100A6500AC0812083C74D82BF582740A3A12097A3C
:060A75007580FFD2932200
:03000B00020A7B6B
:100A7B00C0E0C0D0758C3C758AB00515E5157002C9
:100A8B000514640A45147019F514F515E5192401BC
:100A9B00F519E43518F518E43517F517E43516F59F
:060AAB0016D0D0D0E032AD
:100AB100758901758C3C758AB0D2AFD2A9D28CE40C
:100AC100751970751817F517F516AF19AE18AD171A
:070AD100AC161209F580F3D9
:030000000208DF14
:0C08DF00787FE4F6D8FD75811B02092625
:1008000075F008758200EF2FFFEE33FECD33CDCCAF
:1008100033CCC58233C5829BED9AEC99E582984032
:100820000CF582EE9BFEED9AFDEC99FC0FD5F0D60F
:10083000E4CEFBE4CDFAE4CCF9A88222B800C1B939
:100840000059BA002DEC8BF084CFCECDFCE5F0CB77
:10085000F97818EF2FFFEE33FEED33FDEC33FCEBB0
:1008600033FB10D703994004EB99FB0FD8E5E4F96B
:10087000FA227818EF2FFFEE33FEED33FDEC33FC58
:10088000C933C910D7059BE99A4007EC9BFCE99A4C
:10089000F90FD8E0E4C9FAE4CCFB2275F010EF2F91
:1008A000FFEE33FEED33FDCC33CCC833C810D70791
:1008B0009BEC9AE899400AED9BFDEC9AFCE899F8CC
:0E08C0000FD5F0DAE4CDFBE4CCFAE4C8F9225F
:1008CE00EB9FF5F0EA9E42F0E99D42F0E89C45F080
:0108DE0022F7
:1008EB00020AB1E493A3F8E493A34003F68001F268
:1008FB0008DFF48029E493A3F85407240CC8C3330E
:10090B00C4540F4420C8834004F456800146F6DFDC
:10091B00E4800B0102040810204080900AE2E47E80
:10092B00019360BCA3FF543F30E509541FFEE493D1
:10093B00A360010ECF54C025E060A840B8E493A398
:10094B00FAE493A3F8E493A3C8C582C8CAC583CAC3
:10095B00F0A3C8C582C8CAC583CADFE9DEE780BE7B
:010AE600000F
:00000001FF
