:0408C2000208000028
:0300030002088C64
:10088C00C0E0758CC3758A500509E509700205082E
:03089C00D0E03277
:1008B200758901758CC3758A50D2AFD2A9D28C22A8
:10089F001208B2E5096414450870F8F508F509B2B5
:0308AF00A780F02F
:03000000020800F3
:0C080000787FE4F6D8FD758109020847F6
:10080C0002089FE493A3F8E493A34003F68001F25B
:10081C0008DFF48029E493A3F85407240CC8C333ED
:10082C00C4540F4420C8834004F456800146F6DFBC
:10083C00E4800B01020408102040809008C2E47E82
:10084C00019360BCA3FF543F30E509541FFEE493B1
:10085C00A360010ECF54C025E060A840B8E493A378
:10086C00FAE493A3F8E493A3C8C582C8CAC583CAA3
:10087C00F0A3C8C582C8CAC583CADFE9DEE780BE5B
:0108C6000031
:00000001FF
