:020000040800F2
:10000000A00F00201D020008510D0008D9080008AB
:100010004D0D0008B9050008DD1D000800000000B6
:100020000000000000000000000000002B1200088B
:100030001106000800000000D90D00083D1300085B
:10004000370200083702000837020008D110000804
:10005000370200083702000837020008370200089C
:10006000370200083702000837020008370200088C
:10007000370200083702000837020008370200087C
:10008000370200083702000837020008370200086C
:10009000370200083702000837020008370200085C
:1000A000370200083702000837020008370200084C
:1000B0003702000837020008F91300083702000869
:1000C000370200083702000837020008370200082C
:1000D0003702000881140008BD140008ED14000860
:1000E000150600083702000837020008370200082A
:1000F00037020008370200083702000837020008FC
:1001000037020008370200081114000837020008FF
:1001100037020008370200083114000837020008CF
:1001200037020008370200083702000837020008CB
:1001300000F002F800F063F80AA090E8000C824496
:100140008344AAF10107DA4501D100F058F8AFF273
:10015000090EBAE80F0013F0010F18BFFB1A43F0A5
:1001600001031847047500002475000010F8013BD6
:100170000A4413F0030408BF10F8014B1D1108BF17
:1001800010F8015B641E05D010F8016B641E01F8C5
:10019000016BF9D1002D15D010F8014B03F00C03C1
:1001A0000C2BA1EB04040ABF10F8013BA4EB831451
:1001B000A4EB032405F1010314F8016B5B1E01F8A5
:1001C000016BF9D5914238BF10F8013BD1D370478C
:1001D0000023002400250026103A28BF78C1FBD850
:1001E000520728BF30C148BF0B607047642900F038
:1001F0004B80002070471FB51FBD10B510BD00F02B
:1002000093F91146FFF7F7FF03F0C6FB00F0B1F9D1
:1002100003B4FFF7F2FF03BC00F0B2F909488047CE
:1002200009480047FEE7FEE7FEE7FEE7FEE7FEE7D8
:10023000FEE7FEE7FEE7FEE704480549054A064BF0
:10024000704700009913000831010008A005002044
:10025000A00F0020A0070020A00700200FB41CB5AD
:10026000084B06AA7B4469460090059800F03BF9CC
:1002700004460020694600F049F920461CBC5DF8A0
:1002800014FB0000A50200002DE9F0410646002401
:1002900010687529314616A510D0AFF300800028EC
:1002A00002DA404213A507E031688A0701D512A59A
:1002B00002E0490704D511A5012401E0AFF3008055
:1002C00000210A2206F1240709E0B0FBF2FCB0FB92
:1002D000F2F302FB1C00303078541846491C002809
:1002E000F3D123462A463046BDE8F04100F09DB8E0
:1002F000000000002D0000002B0000002000000086
:100300002DE9F0474FF0000A89460446C0F820A0C6
:100310002046E1688847002876D0252806D0D4E911
:1003200001219047206A401C2062F1E7E1682046E5
:1003300000258847C4F81CA006460027C4F818A06A
:100340002A2E09D0304602F08FF838B304EB870824
:10035000303EC8F8186019E059F8041B204604EB39
:1003600087029161E1688847012F064618D1E0694C
:10037000002820DA25F020051DE0D8F8180000EB51
:10038000800006EB40003038C8F818002046E168CD
:100390008847064602F068F80028EED1012F0AD0FF
:1003A0002E2E08D12046E16888477F1C0646022F82
:1003B00045F02005C4DBA069002803DA404245F07F
:1003C0000105A061E80701D025F01005B6B1A6F13E
:1003D0004100192802D8203645F400654A463146C6
:1003E000204625604D46FFF701FF58B1012806D091
:1003F000ED1D25F0070000F1080989E704E005F18B
:10040000040985E730468AE7206ABDE8F08770472F
:100410007047704710B500F07FF8006810BD10B548
:10042000044600F079F8046010BD2DE9F0470D4650
:1004300099469246044600F124080168880604D5CE
:10044000E06921F01001216000E00120A84201DDF7
:10045000471B00E00027A1697A1902EB0900081A7E
:10046000A0612078C00602D42046AFF300800026A9
:1004700008E0D4E901211AF806009047206A401CE0
:10048000761C20624E45F4DB2078C0060AD5204653
:10049000AFF3008006E0D4E9012130209047206AC4
:1004A000401C2062381EA7F10107F4DC07E0D4E904
:1004B000012118F805009047206A401C2062281E80
:1004C000A5F10105F3DC2046AFF30080207800069B
:1004D00002D50220BDE8F0870120FBE701694A1C34
:1004E00002610878704700B58FB0CDE90131002175
:1004F000059105497944CDE9031011466846FFF797
:10050000FFFE0FB000BD0000E5FFFFFF0A6802F824
:10051000010B0A6070470000004870473C0500204E
:10052000004870473C0500207546FFF7F9FFAE46CE
:1005300005006946534620F00700854618B020B5EF
:10054000FFF77AFEBDE820404FF000064FF00007AD
:100550004FF000084FF0000B21F00701AC46ACE86B
:10056000C009ACE8C009ACE8C009ACE8C0098D46D8
:1005700070470446AFF300802046FFF749FE7047FE
:1005800001491820ABBEFEE7260002007CB50446F8
:10059000FE2C0CD00748007848B10621684603F0CD
:1005A000EFFEC5B2062D01D000207CBD00BF0120AA
:1005B000FBE70000A003002000BFFEE721B10268B6
:1005C00042F00102026004E002684FF6FE731A4036
:1005D0000260704710B50022026847F6F0739A4334
:1005E0000C6A8B6823430C6923434C6923438C6951
:1005F0002343CC6923434C6A23438C6A23431A4325
:100600000260CB6843600B6883604B68C36010BDB9
:10061000704700002DE9F04100240026002530E05D
:100620004FF400411B4800F036F9012829D100F0B1
:100630003BF90446FA2C00DB24E0C82C03DBFA2C3F
:1006400001DA01260AE03C2C03DB5A2C01DA0127EF
:1006500004E00A2C02DB322C00DA0027012E0ED136
:100660000D48006840000C4908600846006838449E
:100670000860202D03DB01200849087002E0681C97
:10068000C5B2CDE700BF4FF4004000F009F8BDE867
:10069000F081000000200140F4030020F803002056
:1006A00001490860704700001404014000212349FB
:1006B0008279002A3AD00A46126803689A430B46A8
:1006C0001A600A1D126803689A430B1D1A600279AA
:1006D00011440A6803681A430A60184A083212680B
:1006E00003689A43154B08331A601A1D1268036891
:1006F0009A43124B0C331A604279102A0ED11A1FFA
:10070000126803681A430D4B08331A601A1D1268E9
:1007100003681A43094B0C331A600DE0074942790C
:1007200011440A6803681A430A6005E0027911441B
:100730000A6803689A430A60704700000004014099
:1007400030B500228B071C0F0F2303FA04F20B4B6A
:100750008C1053F824309343084C8D1044F8253006
:1007600023468C1053F824308C07240F00FA04F42D
:100770002343024C8D1044F8253030BD0800014061
:100780002DE9F04102460025002600200023002428
:10079000002791F803C00CF00F0591F803C00CF08E
:1007A000100CBCF1000F03D091F802C04CEA050513
:1007B00091F800C0BCF1000F31D0146800202BE08C
:1007C0004FF0010C0CFA00F3B1F800C00CEA03067C
:1007D0009E4220D183004FF00F0C0CFA03F7BC436C
:1007E00005FA03FC4CEA040491F803C0BCF1280F9D
:1007F00006D14FF0010C0CFA00FCC2F814C00AE05C
:1008000091F803C0BCF1480F05D14FF0010C0CFA70
:1008100000FCC2F810C0401C0828D1D31460B1F805
:1008200000C0BCF1FF0F34DD546800202EE000F161
:10083000080C4FF0010808FA0CF3B1F800C00CEAFC
:1008400003069E4221D183004FF00F0C0CFA03F7F0
:10085000BC4305FA03FC4CEA040491F803C0BCF164
:10086000280F05D100F1080C08FA0CF8C2F8148022
:1008700091F803C0BCF1480F07D100F1080C4FF00C
:10088000010808FA0CF8C2F81080401C0828CED3E2
:100890005460BDE8F0810246002093680B400BB124
:1008A000012000E00020704770B50024002508E01A
:1008B000601CC4B2142002F0C5FAFA2C01DB2046F9
:1008C00070BD4FF400410348FFF7E5FF0128EFD06A
:1008D0002046F5E70020014000BFFEE7054B1B78EE
:1008E0001BB1130A03700A7002E0130A0B70027046
:1008F00070470000A10300201FB5012140F2011044
:1009000000F08CFA4FF40040ADF80C0048208DF850
:100910000F0003A91448FFF733FF0F210620FFF74C
:100920000FFF4FF40040FFF7BBFE4FF40040019073
:1009300000208DF808000C208DF8090001208DF8AA
:100940000A0001A8FFF7B2FE28208DF80000002061
:100950008DF8010001208DF802008DF80300684633
:1009600000F0F8F91FBD0000002001401FB5012173
:1009700040F2011000F052FA4FF40040ADF80C00C4
:1009800048208DF80F0003A91448FFF7F9FE0F2146
:100990000620FFF7D5FE4FF40040FFF781FE4FF42D
:1009A0000040019000208DF808000C208DF809000F
:1009B00001208DF80A0001A8FFF778FE28208DF8A5
:1009C000000000208DF8010001208DF802000020B9
:1009D0008DF80300684600F0BDF91FBD00200140FE
:1009E0001FB51CA30FCB8DE80F00FFF785FF30E08C
:1009F0001C48007801282CD100201A490870FFF704
:100A0000B5FF19480068194988420DD102F096FED9
:100A100000201749086000F065FF482000F09EFCA8
:100A200014484FF0E02148610F480068124988429D
:100A30000DD102F083FE00200D49086001F06AF933
:100A4000482000F08BFC0B484FF0E0214861FFF795
:100A500053FFCDE730313233343536373839414200
:100A600043444546F8030020F40300209768FF0044
:100A7000B00300203F190100CF30FF000146CA1724
:100A800001EB92729210A1EB820292B9642091FB69
:100A9000F0F200FB121050B94FF4C87091FBF0F265
:100AA00000FB121008B9012070470020FCE701206C
:100AB000FAE70020F8E770B504460D4616462B46C7
:100AC00022462946204600F005F8304600F038F965
:100AD00070BD000030B505460C462E48807950BBED
:100AE0004FF4047000F020F9284600F023F940F29A
:100AF000112000F019F9104600F01CF940F2122004
:100B000000F012F9204600F015F940F2132000F031
:100B10000BF9184600F00EF94FF4007000F004F9DC
:100B2000284600F007F940F2012000F0FDF82046C9
:100B300000F000F929E040F2122000F0F5F8284614
:100B400000F0F8F840F2132000F0EEF8104600F044
:100B5000F1F84FF4047000F0E7F8204600F0EAF8EE
:100B600040F2112000F0E0F8184600F0E3F840F2FF
:100B7000012000F0D9F8284600F0DCF84FF40070AE
:100B800000F0D2F8204600F0D5F840F2022000F044
:100B9000CBF830BDE00300202DE9F84F80460E462B
:100BA00017461C46B3462046E31704EB5373DB108D
:100BB00021464FEAE47C04EB5C7C4FEAEC0CA4EBAE
:100BC000CC0CBCF1000F02D04FF0010C01E04FF053
:100BD000000C6344224604EBD27C4FEA6C0C03FB0E
:100BE0000CF3DBB20093A7F12000C7B2002556E05A
:100BF0000C2C07D107EB47002B4901EB800010F8C4
:100C0000059013E0102C05D1284800EB071010F8D0
:100C100005900BE0182C07D107EBC700244901EB26
:100C2000800010F8059001E0BDE8F88F4FF0000A51
:100C30002FE009F0800030B11E480288314640465E
:100C4000FFF739FF07E00A9828B91B4802883146A8
:100C50004046FFF730FF4FEA49604FEA1069701CC9
:100C600086B216484088B04200DCDDE7A6EB0B00F8
:100C7000A0420AD15E4608F101001FFA80F80F4831
:100C80000088404500DCCFE706E00AF1010000F0F3
:100C9000FF0ABAF1080FCCDB00BF681CC5B2009890
:100CA0008542A5DB00BFBFE782570008F65B00085E
:100CB000E6610008DC030020DE030020E0030020E2
:100CC0002DE9F84704460D4690469946DDE9096747
:100CD00004F0FF0A08EB04001FFA80F809EB050096
:100CE0001FFA80F916E0444502DB5446A81985B284
:100CF0004D4500DB14E0002000903A783346294649
:100D00002046FFF749FF304606EBD07104EB610146
:100D10008CB27F1C38787E2802DC38782028E2DA12
:100D200000BFBDE8F8870000014908807047000057
:100D3000FE07006C01490880704700000008006C45
:100D400001490880704700000008006C00BFFEE702
:100D50007047000070B5002100230F22C47804B34F
:100D6000154C246804F4E064C4F5E064210AC1F180
:100D70000403CA40447804FA03F184781440214300
:100D800009010E4C0678A155047804F01F050124D2
:100D9000AC4005786D11AD0005F1E025C5F80041C6
:100DA00009E0047804F01F050124AC40044D0678E6
:100DB000761145F8264070BD0CED00E000E400E03F
:100DC00080E100E002490143024A116070470000DF
:100DD0000000FA050CED00E07047000029B1064A5A
:100DE00052690243044B5A6104E0034A5269824348
:100DF000014B5A61704700000010024029B1064AB9
:100E0000D2690243044BDA6104E0034AD2698243A7
:100E1000014BDA61704700000010024029B1064A18
:100E200092690243044B9A6104E0034A9269824347
:100E3000014B9A61704700000010024030B500215C
:100E40000022002400232D4D6D6805F00C0121B116
:100E5000042905D0082923D105E0294D056022E0A9
:100E6000274D05601FE0254D6D6805F47012234D78
:100E70006D6805F48034022505EB92421CB9214DC2
:100E8000554305600BE01D4D6D6805F400351DB13F
:100E90001C4D5543056002E0194D5543056002E0C5
:100EA000174D056000BF00BF144D6D6805F0F001DF
:100EB0000909154D6B5C0568DD4045600F4D6D6897
:100EC00005F4E061090A104D6B5C4568DD40856002
:100ED0000A4D6D6805F46051C90A0B4D6B5C45689D
:100EE000DD40C560054D6D6805F44041890B074D37
:100EF0006B5CC568B5FBF3F5056130BD00100240C1
:100F000000127A0000093D00B4030020C403002051
:100F1000024909888143014A118070470428004032
:100F200070B500260024002500F07AF806463848FF
:100F3000B6FBF0F437480088A0423CD035490C801D
:100F400040F2B27510E02846FFF798FD40B1B4F5C5
:100F5000B77F02D3A4F5B77404E0681C85B206E03D
:100F6000A4F26D14681C85B2B4F5B67FEBD800BF4F
:100F700029488580002516E027498888FFF77EFDEF
:100F800030B1012D04D11D2C01D31D3C09E00CE032
:100F90002248405DA04203D82048405D241A00E06A
:100FA00003E0681C85B21C2CE6D200BF681C1A49FD
:100FB0008871601CC8711648B6FBF0F100FB116423
:100FC0004FF46160B4FBF0F0134908704FF46160B6
:100FD000B4FBF0F100FB11403C21B0FBF1F00E49F5
:100FE00048704FF46160B4FBF0F100FB11403C210C
:100FF000B0FBF1F201FB1200074988700B46DA7969
:101000009979988800F028F803490872002070BD8B
:1010100080510100F0030020EC04002074730008EC
:10102000002103480188001F008841EA0040704702
:101030001C28004001460020064A12880A40D0B20F
:10104000044A121F12880A4012B108B1012000E0C0
:101050000020704704280040F0B503460C461546B2
:10106000642093FBF0F0C6B2642093FBF0F700FB22
:101070001730C1B2132E02DD01F16400C1B208467F
:10108000CF1701EB977701EBA707BAB2072092FBC6
:10109000F0F700FB172082B25719601EDFF82CC052
:1010A0001CF80000384482B2CF1701EB9777BF10CD
:1010B000A1EB87071FB9032C01DA501E82B207206B
:1010C00092FBF0F700FB1720C0B2F0BD6873000878
:1010D0001CB50120FFF7AEFF00284ED0FFF720FF20
:1010E0002D48C07900902C48837982882BA12F4805
:1010F000FFF7B4F84FF6FF702D49088047F67C5093
:101100002C49088029480C21CDE900102A48028882
:101110001E23052129480078FFF7D2FD1E4880785C
:1011200000901D484378027825A12048FFF796F8E3
:101130001E480C21CDE900101F490A880B881F4961
:1011400009783031591A88B21E230521FFF7B8FDFE
:101150001FA00C21CDE9001017490988A1F1230433
:1011600004EBD471C1F34F0013490A881E230521F3
:10117000FFF7A6FD00200F4908800220FFF75AFF65
:1011800020B10220FFF7C4FEFFF7CAFE0520FFF7DB
:10119000BFFE00F021F81CBDEC04002025642D25C5
:1011A0002E32642D252E326400000000F60400204B
:1011B000DC030020DE030020E0030020EB0300201E
:1011C000252E32643A252E32643A252E32640000F0
:1011D0005052454348494E0000BF0348008800F084
:1011E00020000028F9D070470428004008B50520E9
:1011F00000231A4619460090FE2003F06FF908BD3F
:10120000F8B505460C4616461F46002C04DA604227
:1012100004B244F4004004B20420A1B23B4632467A
:101220000090284603F0A3F9F8BD704710B500F010
:1012300001F810BD0CB50020019000903348006803
:1012400040F480303149086000BF3048006800F445
:10125000003000900198401C0190009818B9019846
:10126000B0F5A06FF1D12948006800F4003010B14A
:101270000120009001E0002000900098012843D157
:101280002348006840F010002149086008460068C3
:1012900020F0030008600846006840F00200086083
:1012A0001A4840681949486008464068486008463E
:1012B000406840F4806048600846406820F47C1034
:1012C00048600846406840F4E810486008460068F6
:1012D00040F08070086000BF0C48006800F00070AB
:1012E0000028F9D00948406820F003000749486009
:1012F0000846406840F00200486000BF034840686C
:1013000000F00C000828F9D10CBD000000100240CC
:1013100000200240042808D14FF0E021096941F083
:1013200004014FF0E022116107E04FF0E02109696C
:1013300021F004014FF0E022116170474FF0E020EE
:10134000006920F480304FF0E02108610248006815
:10135000401C014908607047B003002010B50446E6
:101360006FF00400FFF7D6FFE11704EB5171C1F3F2
:10137000C701074A11701046007800EB4001C1EB2D
:10138000C0104FF6FF7101EAC0000249088010BD8D
:10139000040400200604002010B51348006840F043
:1013A00001001149086008464068104908400E498C
:1013B0004860084600680E4908400B490860084626
:1013C000006820F4802008600846406820F4FE0091
:1013D00048604FF41F008860FFF728FF4FF000605F
:1013E0000449086010BD0000001002400000FFF832
:1013F000FFFFF6FE08ED00E010B50121034800F004
:101400002EF80121014800F027F810BD0008004027
:1014100010B505480068401C0349086001210348D5
:1014200000F01AF810BD000000040020000C00407D
:1014300010B50121064800F012F820B105480068F7
:10144000401C044908600121014800F005F810BD66
:1014500000100040FC030020CA430282704730B5F0
:101460000246002000230024158A05EA010395891D
:1014700005EA010413B10CB1012000E0002030BDE9
:1014800010B540F225510C4800F09FF870B10A48A1
:1014900000F056F9C4B22146074800F056F900BFE3
:1014A0004021054800F084F80128F9D14021024884
:1014B00000F060F810BD00000038014008480088C6
:1014C0000849094A1268885407490968481CC11725
:1014D00000EB5161C911A0EBC111034A11607047C3
:1014E000044400406C040020AC03002010B540F21E
:1014F00025511D4800F069F810B31B4800F020F991
:10150000C4B21A48008800F40040C8B917480088DF
:1015100000F4804060B10A2C03D0002013490880F9
:1015200020E01248008840F400401049088019E08B
:101530000D2C06D10D48008840F480400B490880EE
:1015400010E00A480088C0F30D0009490C54074810
:101550000088401C05490880084600881D2801DDD8
:101560000020088010BD0000004800400804002052
:101570001E05002001F40072B2F5007F00D100BF0B
:10158000CA430280704721B1828942F400528281AD
:1015900004E082894DF6FF731A40828170471AB1C8
:1015A000838A0B43838202E0838A8B438382704762
:1015B00002460020B1F5007F00D100BF13880B4028
:1015C0000BB1012000E00020704770B502460024F6
:1015D00000230025002040F66A16B14200D100BF6A
:1015E000C1F3421501F01F03012606FA03F3012D92
:1015F00002D19689334006E0022D02D1168A33408B
:1016000001E0968A33400C12012606FA04F416888B
:10161000344013B10CB1012000E0002070BDF0B5E2
:101620000346002400260025002040F66A17B94230
:1016300000D100BF1846C1F3421401F01F06012774
:1016400007FA06F5012C01D10C3004E0022C01D17F
:10165000103000E014301AB107682F43076002E031
:101660000768AF430760F0BD2DE9F04786B0054637
:101670000E460024A24600BFA1460027B08900B153
:1016800000BF2F462C8A4CF6FF700440F0880443BC
:101690002C82AC894EF6F3100440B088318908439F
:1016A000718908430443AC81AC8A4FF6FF40044083
:1016B000B0890443AC8201A8FFF7C0FB1F488742F2
:1016C00002D1DDF810A001E0DDF80CA0A88900F43B
:1016D000004040B10AEBCA0000EB0A103168490033
:1016E000B0FBF1F807E00AEBCA0000EB0A10316822
:1016F0008900B0FBF1F86420B8FBF0F00401200988
:10170000642101FB1089A88900F4004040B1322017
:1017100000EBC900B0FBF1F000F00700044308E063
:10172000322000EB09106421B0FBF1F000F00F0053
:1017300004432C8106B0BDE8F0870000003801406A
:1017400001468888C0F308007047C1F30802828010
:1017500070470000134A128822F04002114B1A8091
:10176000114A126822F001020F4B803BC3F880201F
:101770001A46C2F88C00C2F88410D2F8802042F0D9
:101780000102C3F8802000BF064A128802F08002DE
:10179000002AF9D000BF034A128802F04002002A52
:1017A000F9D0704700440040800002400020024908
:1017B0000860024908607047AC030020A8030020BD
:1017C00010B592B004460420ADF8440003208DF813
:1017D000460018208DF8470011A92F48FEF7D0FFCA
:1017E0000820ADF8440004208DF8470011A92A48CC
:1017F000FEF7C6FF294806900020079009901020A8
:10180000089000200A9080200B9000200C900D90F2
:101810000E904FF400500F900020109006A9204821
:10182000FEF7D8FE01211E48FEF7C8FE0020ADF8E5
:101830000A00ADF80C00ADF80800ADF810000C205F
:10184000ADF80E00019401A91448001FFFF70CFF2A
:10185000012240F225511148001FFFF7E0FE26202B
:101860008DF8140001208DF8150000208DF8160069
:1018700001208DF8170005A8FFF76CFA01228021DE
:101880000648001FFFF78BFE01210448001FFFF7E9
:101890007AFE12B010BD0000000801400444004070
:1018A000800002400C4800680C490968884210D04A
:1018B0000B48094A1268815C074A1268501CC2171B
:1018C00000EB5262D211A0EBC212034B1A60084621
:1018D00070474FF0FF30FBE7A8030020AC03002067
:1018E0006C0400202DE9F04198B00B242D48C06A0B
:1018F00017902C48806A16902A48406A159029480B
:10190000006A14902748C069139026488069129095
:101910002448406911902348006910902148C0680C
:101920000F90204880680E901E4840680D901D481A
:1019300000680C90002000F039F827E0194951F8B0
:1019400024100CAA52F82420881A03F0E6F807465F
:101950000022154B02F02CFF054602F03BFE4DF82D
:1019600024005DF8240003F04FFC21F000410646FE
:1019700003F0A6F885B20B4A32F8242011B2621C9B
:10198000D0B22B460022FFF73BFC641E002CD5DAB8
:10199000FFF72CFC4FF4FA6001F048FA18B0BDE8EC
:1019A000F08100000C0400200000F83F2DE9F04F0A
:1019B0008FB08246644951F82A10A1F1FA0003F071
:1019C000BDFC6249029051F82A0003F01DFC8046DC
:1019D00000225F4B03F008F9064600225D4B03F03E
:1019E00029FB044602F0F6FD83465B4951F82A00C4
:1019F00003F0BCFC06AB01905946029A01F0F8FBDB
:101A00000B21069800F076FE0A21079800F072FE7E
:101A10000921089800F06EFE4B4951F82A10A1F1F7
:101A2000FA0003F08BFC4949029051F82A0003F0B8
:101A3000EBFB80460022464B03F0D6F80646002218
:101A4000444B03F0F7FA044602F0C4FD83464249D2
:101A500051F82A0003F08AFC09AB01905946029A1A
:101A600001F0C6FB0521099800F044FE04210A9804
:101A700000F040FE03210B9800F03CFE324909685B
:101A8000A1F1FA0003F05AFC3449029051F82A00FF
:101A900003F0BAFB064600222D4B03F0A5F80446DE
:101AA00000222C4B03F0C6FA804602F093FD8346D9
:101AB000294951F82A0003F059FC0CAB0190594612
:101AC000029A01F095FB02210C9800F013FE01210F
:101AD0000D9800F00FFE00210E9800F00BFE1A4941
:101AE0000968A1F1FA0003F029FC1C49029051F8A1
:101AF0002A0003F089FB06460022154B03F074F818
:101B000004460022134B03F095FA804602F062FD72
:101B10008346114951F82A0003F028FC03AB0190D9
:101B20005946029A01F064FB0821039800F0E2FD97
:101B30000721049800F0DEFD0621059800F0DAFD8B
:101B40000FB0BDE8F08F0000D0000020A000002002
:101B50000000E03F000024403C0400203001002051
:101B60002DE9F04F8FB08246644951F82A10A1F553
:101B7000AF7003F0E3FB6249029051F82A0003F0D2
:101B800043FB804600225F4B03F02EF806460022FE
:101B90005D4B03F04FFA044602F01CFD83465B499F
:101BA00051F82A0003F0E2FB06AB01905946029A75
:101BB00001F01EFB0B21069800F09CFD0A210798FE
:101BC00000F098FD0921089800F094FD4B4951F868
:101BD0002A10A1F5AF7003F0B1FB4949029051F80A
:101BE0002A0003F011FB80460022464B02F0FCFF66
:101BF00006460022444B03F01DFA044602F0EAFCBC
:101C00008346424951F82A0003F0B0FB09AB01902A
:101C10005946029A01F0ECFA0521099800F06AFD94
:101C200004210A9800F066FD03210B9800F062FD84
:101C300032490968A1F5AF7003F080FB3449029086
:101C400051F82A0003F0E0FA064600222D4B02F07C
:101C5000CBFF044600222C4B03F0ECF9804602F047
:101C6000B9FC8346294951F82A0003F07FFB0CABED
:101C700001905946029A01F0BBFA02210C9800F03B
:101C800039FD01210D9800F035FD00210E9800F07E
:101C900031FD1A490968A1F5AF7003F04FFB1C49EB
:101CA000029051F82A0003F0AFFA06460022154BC5
:101CB00002F09AFF04460022134B03F0BBF9804662
:101CC00002F088FC8346114951F82A0003F04EFBCC
:101CD00003AB01905946029A01F08AFA0821039851
:101CE00000F008FD0721049800F004FD0621059886
:101CF00000F000FD0FB0BDE8F08F0000D000002024
:101D0000A00000200000E03F000024403C04002030
:101D1000300100202DE9F04198B00B242D48C06A15
:101D200017902C48806A16902A48406A15902948D6
:101D3000006A14902748C069139026488069129061
:101D40002448406911902348006910902148C068D8
:101D50000F90204880680E901E4840680D901D48E6
:101D600000680C900020FFF7FBFE27E0194951F8AE
:101D700024100CAA52F82420881A02F0CEFE07463E
:101D80000022154B02F014FD054602F023FC4DF82D
:101D900024005DF8240003F037FA21F000410646E4
:101DA00002F08EFE85B20B4A32F8242011B2621C7A
:101DB000D0B22B460022FFF723FA641E002CD5DA9E
:101DC000FFF714FA4FF4FA6001F030F818B0BDE8EC
:101DD000F08100000C0400200000F83F00BFFEE787
:101DE000490050EAC12018BF04204A0D18BF40F036
:101DF000010040F2FF72B2EB515F08BF40F00200F9
:101E0000012808BF052070472DE9F74F144694B00C
:101E10000021C4E902111599079121F00045C94933
:101E20008D4206DC1599C4E9000117B00020BDE819
:101E3000F08FC549DFF814A3A9423CDD0799C44ED1
:101E40000029C44FC44A1599534619DD03F0F2F82E
:101E5000554506D0C14AC24B03F0ECF8C4E9000175
:101E60000AE04FF0D352BE4B03F0E4F832463B4653
:101E700003F0E0F8C4E9000117B00120BDE8F08FDD
:101E800002F0DAFB554506D0B44AB54B02F0D4FB5C
:101E9000C4E900010AE04FF0D352B14B02F0CCFB91
:101EA00032463B4602F0C8FBC4E9000117B04FF0D0
:101EB000FF30BDE8F08FAB49A942159978DB21F0DE
:101EC000004183468846A84AA84B02F08DFE0022B6
:101ED000A74B02F0B1FB02F0C3FD099002F01DFE1A
:101EE00006460F469C4A534602F07EFE43465A463B
:101EF00002F0AEFF80468A46984A994B30463946F2
:101F000002F072FE2A0D01250B924246534602F062
:101F10009FFF032DC4E9000139D00B98C1F30A518A
:101F2000401A05EB45111139814230DA9148C34618
:101F3000784400EB0510CDF80CA00C90D0E90023FC
:101F40003046394602F050FE02460B460491069098
:101F50005846039903F06EF880468A4602460B46BF
:101F60005846039903F066F8049B069A03F062F85A
:101F700083460C9803913946D0E90223304602F09B
:101F800033FE5A46039B03F055F86D1CBDE70798D6
:101F90000028A2BF099817B0BDE8F08F616881F0F2
:101FA00000416160099817B04042BDE8F08FFFE73B
:101FB00084461598C1F31301C0F30A50A0F2F5301E
:101FC0004FEA601800F01F06C6F1200013900020B1
:101FD0000690079041F4801E05206D4676B1664A52
:101FE00008EB00017A4452F8213002EB8101B34042
:101FF0004A68139922FA01F1194305E05F4908EB99
:102000000002794451F82210A1FB0E27A1FB0C130A
:102010001A449A4234BF0123002303EB070A05EB5D
:102020008003D3E901B70F448F4234BF012100215F
:1020300093448B4411B1934502D903E0934501D2F7
:10204000012100E00021C3E901B7514445F8201007
:10205000011EA0F10100C1DC0298059F00F10050B3
:10206000800F12900298DDE90356800002F055FDC2
:10207000834628460D9102F067FD6FF01D0203F0C4
:102080003AFBCDE90E01304602F05EFD6FF03D02F5
:1020900003F031FB80468A46384602F055FD6FF06A
:1020A0005D0203F028FB074642465346119102F0B9
:1020B000C3FADDE90E2302F0BFFA5A460D9B02F087
:1020C000BBFA00250E465A4628460D9B02F0B2FF89
:1020D000DDE90E2302F0AEFF4246534602F0AAFFAE
:1020E0003A46119B02F0B4FEDFF898A0244A53460A
:1020F00002F07AFD07468846234A244B314628469B
:1021000002F072FD3A46434602F096FA07468846C8
:102110004FF0A84253463146284602F065FD3A4644
:10212000434602F089FA159A12F0004F04D0129A31
:1021300081F0004152421292C4E90001129817B096
:10214000BDE8F08FFB21E93F7CD90240FB21F93F3C
:102150007370032E8A19A33B000040543163621A46
:1021600061B4D03DFB21394183C8C96D305FE43F84
:102170000000E03F44560000C0550000A25500009A
:10218000182D4454FB21F93D3326A611460B113C72
:102190002DE9FF4D21F0004807460C46B8F1795F64
:1021A00008DA02F05DFC002801BF0020324904B0CB
:1021B000BDE8F08D3A4623461046194602F014FD5C
:1021C000054602462D480E460B460621784400F08F
:1021D0005DF82A46334602F007FDDDE90223824618
:1021E0008B463846214602F0FFFC04460F46524615
:1021F0005B462846314602F0F7FC22463B4602F099
:1022000019FF07468A464FF0FF322846314603F051
:1022100072FA1B4A90450ADA3A46534602F00AFF20
:1022200004B00022BDE8F04D134B02F011BE154A78
:102230004245A8BFA8F500154FF00004B8BF124DE5
:1022400022462B4602F0F6FE0646884622462B46DC
:102250000020094902F0EEFE04460D463A46534678
:102260003046414602F0E6FE04B022462B46BDE869
:10227000F04D02F0EDBD00000000F03F7053000093
:102280003333D33F0000E93F0000D23F2DE9F04156
:102290004F1E00EBC7010446D1E9000115461E465A
:1022A00037F006020DD02A46334602F09DFC7F1E11
:1022B00004EBC703D3E9002302F0BEF937F00602AE
:1022C000F1D1022F25D0042F13D0062F18BFBDE85F
:1022D000F0812A46334602F087FCD4E90A2302F053
:1022E000ABF92A46334602F07FFCD4E9082302F01A
:1022F000A3F92A46334602F077FCD4E9062302F01C
:102300009BF92A46334602F06FFCD4E9042302F01D
:1023100093F92A46334602F067FCD4E9022302F01F
:102320008BF92A46334602F05FFCD4E90023BDE86E
:10233000F04102F081B900002DE9FF4D054621F082
:10234000004084B00C46B0F1795F0BDA2846FFF705
:1023500047FD042808BF00F07FF8284608B0214652
:10236000BDE8F08D2A460B46104602F03DFC0646BD
:102370000F462A46234602F037FC804626488A4606
:1023800032463B4605217844FFF780FF834610988C
:10239000029160B3214A224B4046514602F024FC90
:1023A000CDE900015A4640465146029B02F01CFC12
:1023B00082468846DDE906014FF0FF3203F09BF9C3
:1023C0005246434602F036FE32463B4602F00CFCD3
:1023D000DDE9062302F02EFEDDE9002302F02AFEED
:1023E00008B02A462346BDE8F04D02F031BD0B4649
:1023F0005A463046394602F0F7FB084A084B02F0CD
:102400001BF94246534602F0EFFB08B02A4623462A
:10241000BDE8F04D02F010B9B652000049555555CF
:102420005555C5BF002213461046014902F0C0B9F8
:102430000000F03F012203F05EB902F0FDB8002277
:1024400013461046114602F0B3B940F201320020A3
:102450004FF0E04103F04FB9024A0020110703F0AA
:102460004AB9000001FDFFFF30380A2801D20120DF
:1024700070470020704700002DE9F04D0546DFF859
:10248000388221F000408D4F82B00C46404520DB61
:10249000A0EB080129430BD08949884201DC10D107
:1024A0007DB102B028462146BDE8F04DFFF7C2BF1E
:1024B000002CC7BF002001468248394602B0BDE863
:1024C000F08D0120FDF7ABFF02B0BDE8F04DFFF746
:1024D000B6BF7D49884244DA7C498142A1BF794830
:1024E0007B4902B0BDE8F08D2A46234610461946C6
:1024F00002F07AFB8346024676480E460B460621DA
:102500007844FFF7C3FE5A46334602F06DFB074698
:1025100071488A465A46334604217844FFF7B6FE8E
:102520005A46334602F060FB0022434602F084F82C
:1025300002460B463846514602F03AF92A462346EF
:1025400002F052FB654A664B02F082FC2A462346A3
:1025500002F07EFC02B05B4ABDE8F04D5C4B02F03D
:1025600077BC002C4FF000024BDA46464346284623
:10257000214602F061F84FF0FF3203F0BCF8044648
:10258000024658480D460B4606217844FFF77EFE6A
:1025900022462B4602F028FB804653488A462246B4
:1025A0002B4604217844FFF771FE22462B4602F0A9
:1025B0001BFB0022334602F03FF806468B462046BE
:1025C000294601F065FF04460D4632465B4640460B
:1025D000514602F0EDF822462B4602F005FB3F4A39
:1025E0003F4B02F027FD22462B4602F025F8012240
:1025F00003F081F802B03B46BDE8F04D314A02F0ED
:1026000027BC2D4B2846214602F022FC4FF0FF321A
:1026100003F071F805460E4601F03AFF00270C461C
:1026200080463A460B4602F007F882468B463A4609
:1026300023461046194602F0D7FA2A46334602F0DE
:1026400007FC52465B4602F0B3F8824627488B46A9
:102650002A46334606217844FFF718FE2A463346B9
:1026600002F0C2FACDE9000121482A46334604218E
:102670007844FFF70BFE2A46334602F0B5FA0022F3
:102680000D4B01F0D9FF02460B46DDE9000102F0D7
:102690008FF84246234602F0A7FA52465B4601F005
:1026A000CBFF3A46234601F0C7FF02B00122BDE846
:1026B000F04D03F020B800000000F03FFB2109407E
:1026C0000000F07F182D44540000E03F0000603C03
:1026D000FB21F93F7C4E0000924E0000075C143352
:1026E00026A6913CF24D0000084E0000264D000049
:1026F0003C4D00002DE9F34F87B08A46194850F849
:102700002A10079802F050FF1749019051F82A004B
:1027100002F014FE0090019902F070FE834602F070
:1027200073FD124A124BCDE9020102F041F8064650
:102730000022104B02F058FA04460D460E4951F89B
:102740002A0002F0EAF922462B46CDE9040101F005
:1027500073FF804602F084F9084941F82A0009B065
:10276000BDE8F08F40000020700000204AD8124DD4
:10277000FB2119400000B040100000200C04002094
:102780002DE9F04D8D4F21F0004A86B005460C46EC
:10279000BA452ADBAAEB070028430AD088488245BD
:1027A00001DC1AD1CDB106B02846BDE8F04DFFF7E7
:1027B00041BE844A844B284602F016FA07460E466C
:1027C000824A834B2846214602F00EFA06B03A466A
:1027D0003346BDE8F04D01F02FBF0120FDF71FFE8D
:1027E00006B0BDE8F04DFFF72ABE7A48824542DACE
:1027F000BAF1795F0BDA2846FFF7F2FA042808BF2E
:10280000FFF72AFE284606B02146BDE8F08D2A468D
:102810000B46104602F0E8F9834602466E480E4623
:102820000B4606217844FFF731FD5A46334602F045
:10283000DBF9804669488A465A4633460421784483
:10284000FFF724FD5A46334602F0CEF900223B46FC
:1028500001F0F2FE02460B464046514601F0A8FF49
:102860002A46234602F0C0F906B02A462346BDE8B0
:10287000F04D01F0E1BE284624F0004100223D4623
:102880003B4602F0E5FA4FF0FF3202F034FF064615
:10289000024653480F460B4606217844FFF7F6FCE4
:1028A00032463B4602F0A0F9CDE900014D483246E0
:1028B0003B4604217844FFF7E9FC32463B4602F0F0
:1028C00093F900222B4601F0B7FE83460291304671
:1028D000394601F0DDFD804643480D46504517DC82
:1028E000DDE900015A46029B01F062FF42462B4699
:1028F00002F07AF942462B4601F09EFE012202F0D8
:10290000FAFE304A304B02F095FB304A304B4CE037
:102910004FF0000A52460B46404601F08DFECDE9CD
:10292000031052462B461046194602F05DF9324616
:102930003B4602F08DFADDE9033201F039FF06462D
:102940000F46DDE900015A46029B01F031FF834644
:10295000009101223046394602F0CDFE194A1A4B49
:1029600002F076FA06460F4601224046294602F05A
:10297000C2FE5A46009B02F037F932463B4602F04F
:1029800059FB06460F4601225046294602F0B3FE87
:102990000E4DDFF858802A46434602F059FA324677
:1029A0003B4602F055FA2A46434602F051FA002C03
:1029B000D8BF81F0004106B0BDE8F08D0000F03FC7
:1029C0000000F07F075C143326A6913C182D445478
:1029D000FB21F93F0000E03FA84B0000BE4B000088
:1029E000324B0000484B00003333EF3FFB21E93FFF
:1029F0002DE9F84F04460D4621F00040009173493F
:102A0000814211DC7249884201DC06D12CB120469A
:102A10002946BDE8F84FFFF70DBD6E48002DCCBF2D
:102A20006D496E49BDE8F88F6D49814211DD6D49F0
:102A30008142D8BF4FF0FF366DDD20462946FFF7B3
:102A4000CFF9042808BFFFF707FD20462946BDE857
:102A5000F88F6549654F25F00045814233DD6449B3
:102A6000814219DD002632464FF080432046294638
:102A700001F0E2FD80468A4601222046294602F006
:102A80003AFE00223B4602F0D5FA4246534601F098
:102A90008FFE04460D463EE001260022BA463B4624
:102AA0002046294601F0C8FD80460F4600225346C5
:102AB0002046294602F0BEFA42463B4601F078FE27
:102AC00004460D4627E04B4981421BDDDFF828A173
:102AD0000226002253462046294602F085F80022AD
:102AE0003B4601F0A9FD80460F4600225346204692
:102AF000294602F09FFA42463B4601F059FE044641
:102B00000D4608E0032622462B4600203B4901F0F3
:102B10004FFE04460D4622462B461046194602F04B
:102B200063F88B46824602460B4602F05DF8074684
:102B30000246334888460B4606217844FFF7A6FB39
:102B400052465B4602F050F882462E488B463A4683
:102B5000434605217844FFF799FB3A46434602F085
:102B600043F802460B46002E504659460CDA01F057
:102B700063FD22462B4602F037F801B022462B4671
:102B8000BDE8F04F02F064B901F056FD22462B4635
:102B900002F02AF81C4A7A4402EBC603D3E9002368
:102BA00002F048FA22462B4602F044FA174A7A44C9
:102BB00002EBC603D3E9002302F04AF9009A002A87
:102BC000B8BF81F00041BDE8F88F0000000010445C
:102BD0000000F07F182D4454FB21F93FFB21F9BF81
:102BE0000000DC3F0000203E0000F33F0000F03F0B
:102BF0000000E63F008003400000F83F0000F0BF07
:102C00004A49000008490000A64800006E4800003C
:102C10002DE9F04D9446CCF1000423F000464CEA37
:102C20000404524F46EAD4749A46884621F0004282
:102C3000BC4206D8454240EA050442EAD474BC428C
:102C400004D9BDE8F04D6246FFF7F7BBAAF1405545
:102C5000A5F17F6555EA0C040BD0022404EAAA749E
:102C6000434DDFF810E144EAD87452EA000B04D077
:102C70000CE0BDE8F04DFFF7BBBE002C14BF012CEB
:102C8000BDE8F08D022C30D0032C32D056EA0C0B6C
:102C90000AD0BE4220D1BA4209D126F0804622F0A5
:102CA00080423346114617E000291ADB25E0DFF8A1
:102CB000C8B0FB44002C04BFDBE90001BDE8F08D87
:102CC000012C02BFDBE9000181F00041BDE8F08D7D
:102CD000022C0AD0032C0CD0BA4212D1B8F1000F4A
:102CE0000BDA23482549BDE8F08D28462449BDE884
:102CF000F08D28467146BDE8F08D1D482149BDE89C
:102D0000F08D921B12153C2AC4BF19481D490EDCD8
:102D1000BAF1000FBEBF12F13C0F0020014606DBE6
:102D2000624601F045FD21F00041FFF761FE002CF5
:102D300008BFBDE8F08D012C04BF81F00041BDE863
:102D4000F08D114A114B022C07D002F073F92A467C
:102D5000BDE8F04D0A4B02F06DB902F06BF92A465E
:102D6000BDE8F04D064B02F073B800000000F07FA4
:102D7000182D4454FB2109C0BA480000FB21F9BFBB
:102D8000FB210940FB21F93F075C143326A6A13C37
:102D900000B5244B21F0004287B09A42DCBF0022EC
:102DA000134629DD204B9A4208D140B94FF001006B
:102DB000FDF735FBFFF743FB07B000BD03DBFFF773
:102DC00039FB07B000BD02AAFFF71EF810F003019F
:102DD00004BF0DF1080C9CE80F000DD00120012963
:102DE0000ED0022914D00DF1080C00909CE80F00C1
:102DF000FFF7A2FA07B000BDFFF7CAF907B000BDA0
:102E00000DF1080C00909CE80F00FFF795FA05E023
:102E10000DF1080C9CE80F00FFF7BAF907B081F03C
:102E2000004100BDFB21E93F0000F07F00B50146F5
:102E300000F0C4FD421800BF00F0C0FD9042FBD37B
:102E400000BD00000146114A12784A434FF0E023CA
:102E50005A6100229A611A46126942F001021A610F
:102E600000BF4FF0E022106900F001021AB100F437
:102E70008032002AF5D04FF0E022126922F00102E0
:102E80004FF0E0231A6100229A6170470404002089
:102E90002DE9F04F99B004460D4616469946304646
:102EA00002F0B2F90746FFF773FF82468B462846C9
:102EB00002F0AAF9CDE90C01FFF76AFF0746884640
:102EC000C648006802F0A0F93A464346CDE90E0133
:102ED00001F08AFE52465B46CDE9100101F084FE06
:102EE000CDE91401284602F08FF9CDE90C01FFF776
:102EF0004FFF07468846BA48006802F085F98246C7
:102F00003A46434601F070FECDE91001484602F012
:102F10007BF90746FFF73CFFCDE90401304602F09C
:102F200073F90746FFF734FF82468B46284602F0C6
:102F30006BF90746FFF72CFF52465B46CDE90001CF
:102F400001F052FECDE90201DDE9042301F04CFE5F
:102F5000CDE90801484602F057F9074601F048FA62
:102F6000CDE90401304602F04FF9074601F040FA7E
:102F7000CDE90001284602F047F90746FFF708FFB0
:102F80008246DDE9002301F02FFECDE90201DDE9F3
:102F9000042301F029FECDE90601DDE9082302F052
:102FA00049F8CDE90C018F48006880F000473846A9
:102FB00002F02AF9CDE90A01DDE90C2301F014FE43
:102FC000CDE90E01DDE9102301F036FBCDE9120158
:102FD000DDE9142301F030FBCDE9160101F0FAFA26
:102FE0002060304602F010F9824601F001FA0746EF
:102FF00088467A48006802F007F93A464346CDE928
:10300000100101F0F1FDCDE91401304602F0FCF8A9
:10301000074601F0EDF982468B46484602F0F4F887
:103020000746FFF7B5FE52465B46CDE9080101F0C1
:10303000DBFDCDE90C01484602F0E6F8074601F059
:10304000D7F9CDE90801304602F0DEF80746FFF770
:103050009FFE8246DDE9082301F0C6FDCDE90A01A5
:10306000DDE90C2301F0E8FACDE910015D480068C4
:1030700002F0CAF8CDE90E01DDE9102301F0B4FD3C
:10308000CDE91201DDE9142301F0D6FACDE91601EC
:1030900001F0A0FA6060284602F0B6F8074601F099
:1030A000A7F9CDE91001304602F0AEF8CDE90C01E8
:1030B000FFF76EFECDE90E014848006802F0A4F863
:1030C0000746DDE90E2301F08FFD8246DDE910237E
:1030D00001F08AFDCDE91401284602F095F8CDE90A
:1030E0000C0101F085F9074688463D48006802F06A
:1030F0008BF882463A46434601F076FDCDE9100151
:10310000284602F081F8074601F072F9CDE9040182
:10311000484602F079F80746FFF73AFE82468B46AA
:10312000304602F071F80746FFF732FE52465B4622
:10313000CDE9000101F058FDCDE90201DDE90423EC
:1031400001F052FDCDE90801484602F05DF807465E
:1031500001F04EF9CDE90401304602F055F807467A
:1031600001F046F982468B46284602F04DF80746A4
:1031700001F03EF952465B46CDE9000101F034FD15
:10318000CDE90201DDE9042301F02EFDCDE90601C0
:10319000DDE9082301F04EFFCDE90C01114800687C
:1031A00002F032F8CDE90A01DDE90C2301F01CFD43
:1031B000CDE90E01DDE9102301F03CFFCDE912015C
:1031C000DDE9142301F036FFCDE9160101F002FA22
:1031D000A060002019B0BDE8F08F000008000020BA
:1031E000040000200C00002010B5FEF7DFFA10BD2F
:1031F0000FB5A9B0299802F007F8CDE91C012B986A
:1032000002F002F8CDE91A01DDE91C23FFF700FD09
:1032100081F00041CDE91E0101F0DCF92190FE486A
:1032200001684FF0804002F0E9F81690FB48016811
:10323000169802F0E3F8179001F0E6FFCDE91A01C5
:10324000F6480168006802F0D9F8139001F0DCFF3D
:10325000CDE91601F0480168006802F0CFF80F9040
:1032600001F0D2FFCDE912012A99084602F0C6F812
:103270000B9001F0C9FFCDE90E01E948006801F0AB
:10328000C3FFCDE908012B99084602F0B7F8029078
:103290002999084602F0B2F80190029901F0E0FF86
:1032A000039001F0B1FFCDE9040101F0F1F8CDE99F
:1032B0000601DDE9082301F0BDFE00224FF0804346
:1032C000CDE90A0100F080FBCDE90C01DDE90E2318
:1032D00001F0B2F9CDE91001DDE9122301F0AAFEF7
:1032E000CDE91401DDE9162301F0A4FECDE91801B2
:1032F000DDE91A2301F05CFACDE91C01FFF7BCF807
:10330000CDE91E0101F066F920900021219802F01C
:1033100041F87DD2219801F077FFC24AC24BCDE936
:103320001C0101F089F9CDE91E0101F053F921904A
:10333000B94801684FF0804002F060F81690B74835
:103340000168169802F05AF8179001F05DFFCDE978
:103350001A01B2480168006802F050F8139001F0B9
:1033600053FFCDE91601AC480168006802F046F849
:103370000F9001F049FFCDE912012A99084602F0A9
:103380003DF80B9001F040FFCDE90E01A448006824
:1033900001F03AFFCDE908012B99084602F02EF81A
:1033A00002902999084602F029F80190029901F04B
:1033B00057FF039001F028FFCDE9040101F068F800
:1033C00081F00041CDE90601DDE9082301F032FE7C
:1033D00000224FF08043CDE90A0100F0F5FACDE973
:1033E0000C01DDE90E2301F027F9CDE91001DDE93B
:1033F000122301F01FFECDE91401DDE9162301F0CF
:1034000019FECDE91801DDE91A2301F0D1F900E038
:1034100008E0CDE91C01FFF72FF8CDE91E0101F00E
:10342000D9F820907D48006801F0EEFECDE91C013E
:10343000209801F0E9FECDE91401FFF7A9FCCDE9E0
:1034400018017548006801F0DFFECDE91601DDE9DD
:10345000182301F0C9FBCDE91A01DDE91C2301F0B5
:10346000EBF8CDE91E0101F0B5F82890209801F0A5
:10347000CBFECDE9180100F0BBFFCDE91C01664889
:10348000006801F0C1FECDE91A01DDE91C2301F05D
:10349000ABFBCDE91E0101F09DF82790289801F0C3
:1034A000B3FECDE91801279801F0AEFECDE9160173
:1034B000DDE91823FFF7ACFBCDE91C01279908468D
:1034C00001F09CFF10902899084601F097FF0F909B
:1034D000109901F0C5FE119001F096FECDE91201A0
:1034E00000F0D6FFCDE916012A9801F08DFECDE956
:1034F0001401DDE9162301F05BF9CDE91801FFF7AE
:103500003FF9CDE91A01DDE91C2301F093FDCDE976
:103510001E0101F05FF82690289801F075FECDE9B4
:103520001801279801F070FECDE91601DDE9182396
:10353000FFF76EFBCDE91C012799084601F05EFFFD
:103540000E902899084601F059FF0D900E9901F050
:1035500087FE0F9001F058FECDE9100100F098FFB2
:10356000CDE914012A9801F04FFECDE91201DDE901
:10357000142301F01DF9CDE91601FFF701F9294ADD
:10358000294BCDE9180101F063FCCDE91A01DDE911
:103590001C2301F04FFDCDE91E0101F01BF8259021
:1035A00022A8DDE92031269AFFF772FC2298014615
:1035B0001C90299801F0EEFF1D9001F025FE21F0EE
:1035C00000411A4A1A4BCDE91E0101F0D1FA3AD254
:1035D00023981C902A9901F0E7FF1D9001F014FE3A
:1035E00021F00041114A124BCDE91E0101F0C0FA51
:1035F00029D224981C902B9901F0D6FF1D9001F040
:1036000003FE21F00041094A094BCDE91E0101F0FA
:10361000AFFA18D22C990DE00C0000200800002011
:10362000040000204AD8124DFB2109402D431CEB19
:10363000E2361A3F2198086026992C9841602C990F
:103640002098886008E02C99219808602C9925988A
:1036500048602C992098886001202DB000BD0000A2
:1036600010B5002000F0B6F83348808D01B2FA237F
:1036700000220C20FDF7C4FD2F48008D01B2FA2373
:1036800000220B20FDF7BCFD2B48808C01B2FA23F1
:1036900000220A20FDF7B4FD2748008C01B2FA236E
:1036A00000220920FDF7ACFD2348808B01B2FA23EC
:1036B00000220820FDF7A4FD1F48008B01B2FA2369
:1036C00000220720FDF79CFD1B48808A01B2FA23E7
:1036D00000220620FDF794FD1748008A01B2FA2364
:1036E00000220520FDF78CFD1348808901B2FA23E2
:1036F00000220420FDF784FD0F48008901B2FA235F
:1037000000220320FDF77CFD0B48808801B2FA23DC
:1037100000220220FDF774FD0748008801B2FA2359
:1037200000220120FDF76CFDFDF760FD4FF4FA600B
:10373000FFF77CFB10BD00000C04002070B50121D8
:103740000820FDF76BFB01210420FDF767FB012139
:103750000846FDF763FB01218803FDF75FFB0121AC
:103760004804FDF74BFB01210846FDF737FB4FF4FA
:10377000A060FDF727FB144800684FF47A72B0FB95
:10378000F2F1B1F1807F00D31DE021F07F40401EB7
:103790004FF0E022506150170F22002807DA13077C
:1037A0001D0E0A4B00F00F04241F1D5503E01307E4
:1037B0001C0E074B1C5400BF00204FF0E02290610C
:1037C0000720106100BF70BDC803002018ED00E0A5
:1037D00000E400E02DE9F04F8FB08246684951F8CF
:1037E0002A104FF4AF72C2EB410001F0A7FD65490A
:1037F000029051F82A0001F007FD80460022624B3A
:1038000001F0F2F906460022604B01F013FC044679
:1038100000F0E0FE83465E4951F82A0001F0A6FD63
:1038200006AB01905946029AFFF7E2FC0B2106987D
:10383000FEF760FF0A210798FEF75CFF0921089850
:10384000FEF758FF4E4951F82A104FF4AF72C2EB01
:10385000410001F073FD4B49029051F82A0001F03C
:10386000D3FC80460022484B01F0BEF906460022F8
:10387000464B01F0DFFB044600F0ACFE83464449B2
:1038800051F82A0001F072FD09AB01905946029AE5
:10389000FFF7AEFC05210998FEF72CFF04210A98DA
:1038A000FEF728FF03210B98FEF724FF344909682F
:1038B0004FF4AF72C2EB410001F040FD3549029078
:1038C00051F82A0001F0A0FC064600222E4B01F020
:1038D0008BF9044600222D4B01F0ACFB804600F032
:1038E00079FE83462A4951F82A0001F03FFD0CABCE
:1038F00001905946029AFFF77BFC02210C98FEF7D3
:10390000F9FE01210D98FEF7F5FE00210E98FEF755
:10391000F1FE1B4909684FF4AF72C2EB410001F0A0
:103920000DFD1C49029051F82A0001F06DFC06467D
:103930000022154B01F058F904460022134B01F008
:1039400079FB804600F046FE8346114951F82A0073
:1039500001F00CFD03AB01905946029AFFF748FCB9
:1039600008210398FEF7C6FE07210498FEF7C2FE61
:1039700006210598FEF7BEFE0FB0BDE8F08F0000EF
:10398000D0000020A00000200000E03F0000244004
:103990003C0400203001002000BFFFF7CFFE00F004
:1039A00017FDFFF75DFE4820FDF7D8FCFDF718F87E
:1039B00003E0FDF797FFFEF7ADF9FAE7014800686D
:1039C00070470000B00300202DE9F04D16460F4669
:1039D00094B01C4621F0004123F00042002814BF9F
:1039E0004FF0010C4FF0000C0CEB470CFE4B0CEBB6
:1039F00003054FEA630C65452BD3350018BF01253D
:103A000005EB44051D44F94B9D4222D3F84B52EA85
:103A1000060C02D09F4205D148B914B000201946C7
:103A2000BDE8F08D002808BF4FF0000C01D04FF02A
:103A3000010C0CEB470313F5001F0AD8002E14BF2E
:103A40004FF0010C4FF0000C0CEB440313F5001F7A
:103A500007D914B0324623463946BDE8F04DFEF78B
:103A6000ECBCDFF890834FF0000A002FB8BF42454E
:103A700023DAE14B9A42A8BF4FF0020A1DDADC4B71
:103A800093421ADCDD4B03EB2253142B08DDC3F108
:103A9000340C26FA0CF303FA0CFCB4450DD108E003
:103AA0005EB9C3F1140C22FA0CF303FA0CFC944532
:103AB00003D103F00103C3F1020A51EA00031BD151
:103AC000002C19DA002F18BFBAF1020F02D0BAF198
:103AD000010F07D00220FCF7A2FC14B0BDE8F04DA6
:103AE000FEF7A0BC0220FCF79AFCFEF79BFC14B08A
:103AF00081F00041BDE8F08D330070D1424525D101
:103B000007F1804212F5801201BF00280020B84959
:103B100014B008BFBDE8F08DB548884207DC002C22
:103B2000A1BF1846214614B0BDE8F08D07E0002C77
:103B3000BFBF184684F0004114B0BDE8F08DB04915
:103B40007944D1E9000114B0BDE8F08DDFF8A0C2DE
:103B500062452AD1002C24DA39B1414517D1002819
:103B600004BF002002461CD106E040B10220FCF751
:103B700056FCFEF76AFC0A46394600F0D7BA9D4A61
:103B8000394614B0002062F31E01BDE8F08D08DA5A
:103B900014B03B46BDE8F04D02460020614600F0FF
:103BA00007BE14B03946BDE8F08D414517DAB4F1CF
:103BB000804F0CD0A4F10053B3F1FF530FD13B1E43
:103BC0000DDB14B01946BDE8F04D00F061BC3B467A
:103BD00014B00246BDE8F04D194601F005B80500E5
:103BE00027F000433AD1E1B1414537D1002F06DD3E
:103BF000002CA1BF0020414614B0BDE8F08D002F7D
:103C000001DD002C1FDB002F16DA002C14DBBAF1CB
:103C1000010F4FF0000014BF76497A4914B0BDE897
:103C2000F08DBAF1020F18BF002F0CD0BAF1010FBE
:103C300009D1002F07DA0BE0002FB8BF002C0DDAF6
:103C4000BAF1010F04D0002014B00146BDE8F08D98
:103C500014B000204FF00041BDE8F08D4FF0010896
:103C600008EBE77CCDF814C05CEA0A0C0DD0DFF855
:103C700098C162457EDDDFF894C1654B624512DD77
:103C80008B420ADB002C18DB23E00120FCF7C7FB8A
:103C900014B0BDE8F04DFEF7D2BB554A8A4202DCB3
:103CA000002C0ADC15E0994202DA002C11DA04E05B
:103CB0004F4B994219DD002C0BDD0220FCF7AFFBC6
:103CC000FEF7C3FB4B4A14B061F31E021146BDE878
:103CD000F08D0220FCF7A3FBFEF7BEFB444A14B0B4
:103CE00061F31E021146BDE8F08D0022394601F055
:103CF000A1F907460D466FF0010201F0FCFC4FF000
:103D00005532444B01F0A4F83A462B4600F06CFFC4
:103D10000022414B01F09CF880468B463A462B46E8
:103D20001046194600F060FF42465B4600F05CFF1B
:103D300088460E904FF0C042384B3846294600F076
:103D400053FF83460091364A344B41460E9800F0AB
:103D50004BFF80460191334A334B3846294600F0E9
:103D600043FF4246019B01F065F90D4602460B46B2
:103D70000C9000E011E05846009900F05DFC00272F
:103D800088465A463846009B01F054F92B460C9A57
:103D900001F05EF8024600F079B90020B1F5801F0D
:103DA00007DA35222846194601F0A5FC05466FF0D2
:103DB000340000EB2150A0F2FF300190C1F313005A
:103DC00040F07F6141F04051029118498842D8BFCC
:103DD0004FF0000B35DD16498142C8BF4FF0010B93
:103DE0002FDC4FF0000B25E0FFFF1F00FFFF0F004F
:103DF0000000F03F0000F07F0000404301FCFFFFA7
:103E00002C3A00000000F0FF0000E0410000F04309
:103E1000FFFFEF3F5555D53F0000E03F4715F73F07
:103E2000FE822B6544DF5DF80BAE543E8E98030096
:103E30007AB60B000198401C01900298A0F5801002
:103E40000290FF480299784400EBCB000991D0E939
:103E5000002328460B93129201F0ECF800910A908F
:103E600028460B9B129A099900F0E6FB02460B4686
:103E70000020F44900F09CFCCDE90C010B46024601
:103E800000990A9800F0B0FE0690EF488846002797
:103E900078440299006810904FF0005040EA6100A9
:103EA00000EB8B4000F5002102910B9B129A1098B9
:103EB00001F0C0F82A46099B00F0CAFF3A46434683
:103EC00000F092FE0891129038464146029B109AEB
:103ED00000F08AFE009B0A9A00F0BAFF089B129A33
:103EE00001F0A8F8DDE90C2300F07EFE0B91069AA4
:103EF000129043461046194600F076FE05460246EB
:103F0000D2480B460A9106217844FEF7BFF90A9B76
:103F10002A46089102901046194600F065FE089B5B
:103F2000029A00F061FE054609914346384619465B
:103F3000069A00F081FB0B9B129A00F055FE2A4670
:103F4000099B00F079FBCDE908013A46434610464B
:103F5000194600F049FE0A910022BD4B009000F086
:103F60006BFBDDE9082300F067FB0D463A46B84BD2
:103F7000384601F05FF80A9B009A01F05BF8DDE932
:103F8000082300F065FFCDE908013A462B461046AC
:103F9000414600F029FE00910A90DDE90801434600
:103FA000069A00F021FE069088462B463A460B9969
:103FB000129800F019FE4346069A00F03DFB804639
:103FC0000B4602460D9100990A9800F035FB00203F
:103FD0000F460546009B0A9A01F02CF842460D9BBD
:103FE00000F036FF88460E904FF06042994B28460D
:103FF000394600F0F9FD02910090974A954B4146F1
:104000000E9800F0F1FD80460391944A944B2846A7
:10401000394600F0E9FD4246039B00F00DFB914A52
:104020007A4402EBCB03D3E9002300F005FB0546FD
:104030000791019800F071FD0C9003912A46079BAF
:104040000299009800F0F8FA874A7A4402EBCB0311
:10405000D3E900239346019300F0EEFA039B0C9AF8
:1040600000F0EAFA002788463846039B0C9A00F0D5
:10407000E1FF5A46019B00F0DDFF029B009A00F031
:10408000D9FF2A46079B00F0E3FE02460020069077
:1040900005986C4DAAF10103184301D1734D0690A8
:1040A00000200B4604903046214600F09DFD8246DC
:1040B0008B46234630461946049A00F0BBFF3A4629
:1040C000434600F091FD52465B4600F0B5FA0646C5
:1040D0008A463A4643462146049800F085FD044648
:1040E0000F463246534600F0A7FA614A8B4691428A
:1040F00021DBABEB020353EA000210D122463B4620
:1041000000F098FF804603915A4A5B4B3046514677
:1041100000F092FA4246039B00F064FE27D2022090
:10412000FCF77DF9FEF791F90A46294614B062F3CF
:104130001E01BDE8F08D514B2BF000429A4216D380
:104140004F4A0BEB020353EA000208D122463B46DA
:1041500000F070FF3246534600F044FE07D80220BC
:10416000FCF75DF9FEF778F90A462946DEE72BF001
:1041700000404449444A01EB20514FF0000882427C
:1041800023DA481C4FF4801121FA00F058443F4ACA
:10419000C0F30A517A443E4BA1F2FF31CB4020EAF2
:1041A0000303C0F3130040F4801CC1F11400126833
:1041B0002CFA00F8BBF1000FB8BFC8F10008204688
:1041C000394600F037FF04460F4622463B4630464C
:1041D000514600F031FA4FF0000B5A462D4B58462D
:1041E000039100F001FD00910A902B4A2B4B584699
:1041F000039900F0F9FC0491029022463B46584690
:10420000039900F017FF3246534600F021FE244A7E
:10421000244B00F0E9FC049B029A00F00DFA0746DB
:104220008A46009B0A9A00F007FA04460E46009B55
:104230000A9A00F0FFFE3A46534600F009FE33E0CA
:104240006E3600000000F03FDC360000DC35000078
:104250000000084009C7EE3FFD033ADCF5015B149E
:10426000E02F3EBEB43400007A3400000000F0BFFE
:1042700000009040FE822B654715973C00CC904093
:1042800000346F3F01FCFFFF0000E03FD833000027
:10429000FFFF0F00432EE63F396CA80C615C20BE87
:1042A000EF39FAFE422EE63F0746224633460F918B
:1042B0001046194600F098FC834602462E488A466E
:1042C0000B4605217844FDF7E1FF5A46534600F0BE
:1042D0008BFC2246334600F0BBFD82468B463A46B5
:1042E000204631460F9B00F07FFC3A460F9B00F0C2
:1042F000A3F90F460A9000224FF0804350465946DA
:1043000000F098FE0391009052465B4620463146ED
:1043100000F06AFC039B009A00F04AFA3B460A9AB6
:1043200000F088FE2246334600F084FE0022134B44
:1043300000F08EFD0E46044601EB085108150028DA
:1043400010DC42462046314601F0D5F9FDF748FD24
:10435000042808BFFEF780F842462046314601F0A7
:10436000CAF9044606980B4614B022462946BDE811
:10437000F04D00F039BC0000503200000000F03F6A
:104380002DE9F04706460F460024FFF717FB81464C
:1043900016E0FDF787FA0546681C28B106B13555C9
:1043A000641CFFF70BFB8146BC4200DB09E0FFF712
:1043B00005FBA0EB090805480068804500D900E02E
:1043C000E7E700BF2046BDE8F0870000A403002017
:1043D00010B54FF4E130FDF7F3F94FF4FA70FEF742
:1043E00025FD01200149087010BD000000000020DB
:1043F00000B5254B21F0004287B09A4203DC002231
:10440000134600922BE0214B9A4208D140B94FF05D
:104410000100FCF704F8FEF712F807B000BD03DB5B
:10442000FEF708F807B000BD02AAFDF7EDFC10F09A
:1044300003014FF001000DD0012914D002291AD038
:104440000DF1080C9CE80F00FDF7A2FE07B081F00B
:10445000004100BD0DF1080C00909CE80F00FDF735
:104460006BFF07B000BD0DF1080C9CE80F00FDF7D5
:104470008FFE07B000BD0DF1080C00909CE80F0006
:10448000FDF75AFFE2E70000FB21E93F0000F07F63
:104490002DE9F04106460F4600F0E6FC04000D460B
:1044A00018BF0120284320F00040C0F17F6000F1D8
:1044B000E040C00F0ED0301C18BF0120384320F060
:1044C0000040C0F17F6000F1E040C00F04BF012058
:1044D000FBF7A5FF20462946BDE8F0812DE9FE4FF8
:1044E0008046894614461D46DDF830A0022700208C
:1044F0000090FF208DF804008DF805008DF80680EF
:104500008DF808A05CB1681C3844C7B28DF80770FC
:104510008DF80990062101A800F052F805E08DF809
:104520000770052101A800F04BF808EB0700504484
:104530004844C0B200907CB1002607E0A05D9DF821
:1045400000100844C0B20090701CC6B2AE42F5DB49
:104550002946204600F034F89DF80000C043C0B260
:1045600000900121684600F02BF8BDE8FE8F2DE990
:10457000FE4306460C4617461D46DDF82880FEF72A
:1045800033FE22460DF1050101A8FCF7A7F93A46D2
:104590000DF10701481EFCF7A1F92A460DF10901AA
:1045A00002A8FCF79BF9062301AA2A213046CDF880
:1045B0000080FFF793FF3046FBF7E8FFBDE8FE837E
:1045C00070B505460C46E1B22846FDF7C3F8002059
:1045D00070BD000021F00042A2F16052B2F5801FD0
:1045E00001F0004328BFD2F17F6C0BD95FEA001CB9
:1045F00043EAC20242EB507018BF704728BF20F058
:1046000001007047B2F5801FBCBF184670474FEAE3
:10461000410C1CF5001F02D2084600F0B6BF70B571
:1046200000F08CFB00000089FFF7F6BF4FF0004060
:10463000A0F580007047000010B591EA030F48BF55
:1046400083F0004300F1FE84841A71EB030C05D261
:10465000121943EB0C03001B61EB0C01DFF824E1A2
:104660004FEA1154A4EB135C1EEA430F18BF9EEAF5
:10467000445F73D023EA0E03DCF1200E21EA0451DB
:1046800043F4801332D322FA0CFE10EB0E0023FA0F
:104690000CFE41EB0E01CCF1200E03FA0EFE10EBE6
:1046A0000E0051F10001B1F5801FCCF1200E32D285
:1046B00001EB045112FA0EF2BDE8104058BF7047EA
:1046C000401C38BF5FEA420218BF7047002814BF81
:1046D00020F0010041F100014FEA410313F5001FF2
:1046E00038BF7047A1F1C04100F076BB012A43EB0F
:1046F0000302ACF1200CDCF11F0E32BF4FF0000EB4
:1047000023FA0CF310EB030041EB0451B4EB115FFF
:10471000D0D0A1EB045101F5801149085FEA3000C7
:1047200001EB04510ED350F1000038BF12FA0EFE17
:1047300008D1BDE81040C9E7401C38BF5FEA42021B
:10474000CAD1C3E7BDE810404FEA410313F5001F8B
:1047500038BF7047A1F1C04100F03EBB9EEA445F04
:1047600008D011EA5E0FBDE8104004BF01F000411F
:1047700000207047BDE8104070B500F0DFFA00BFC0
:1047800064FBBE3E0000E0FF02494FF0000000F075
:1047900080BF00BF0000F87F491058BFC1F1404101
:1047A0005B1058BFC3F140438B42EFF3008070476A
:1047B0002DE9C04130B4DFF8A0C23CEA111418BFA3
:1047C0003CEA131400F0EC8081EA03051CEA1114A2
:1047D00044EAD57418BF1CEA131500F0C780A4EB97
:1047E00005044FF0004545EAC12145EAC32341EAEB
:1047F000505143EA525304F17F74994204F5003456
:104800004FEAC0204FEAC22208BF904200F09C80CD
:104810004FEA13650FF24016765D4FEA134506FB2B
:1048200005F7C7F1807706FB07F74FEAD737A7FBF5
:1048300003687642C8F58038A7FB06CE38BFA8F1DA
:10484000010807FB08E64FF0000EA6FB028CE6FB12
:1048500003CEDCF1000CCEF1004E38BFAEF1010EFC
:10486000A6FB0C584FF000074FF00005E6FB0E8743
:10487000A1FB08C6A0FB07CE16EB0E0645F100050E
:10488000E1FB076515F1E04E7EBFA4F580345FEAD9
:1048900046066D4116F1800745F100054FEA1727DE
:1048A0004FEA066647EA0567A6F1DE46B6F1805F85
:1048B0004FEA15251FD9384624F0010C05EBC471C9
:1048C000BCF1FE6F01EB0C1102D8F0BCBDE8008119
:1048D00024425CBF01F5801E9EEAC47F02D4F0BC76
:1048E000BDE80081244238D4F0BCA1F1C041BDE84C
:1048F000004100F071BA4FEAD22242EA43524FEA35
:10490000D323A7FB02864FEAD02040EA415007FBA1
:1049100003661EEA0E0F4FEAD12105FB026658BF5F
:10492000A6EB0056B6EB00564FEA520E4EEAC37E97
:1049300018EB0E0E56EB530EBDD518EB02085E4178
:104940007F1C55F10005B6E74FF480154FF00007C6
:104950004FF000064FF00008ADE7F0BC4FF000004C
:1049600001F1C04101F00041BDE8008111EA0C1FD6
:104970000CEA131500D00CE013EA0C1F00F02580A0
:104980004FF00000F0BC81EA030101F00041BDE8F6
:104990000081F0BCBDE8004181EA030100F01CBACF
:1049A000F0BCBDE8004170B500F0C8F9097EFC3EDE
:1049B00000F007B881EA03014FF0000001F0004168
:1049C000704781EA030100F007BAF0BCBDE800417E
:1049D0004FF0000021497047FFFDFBF9F7F5F4F2B5
:1049E000F0EEEDEBE9E8E6E4E3E1E0DEDDDBDAD88A
:1049F000D7D5D4D3D1D0CFCDCCCBCAC8C7C6C5C4E8
:104A0000C2C1C0BFBEBDBCBBBAB9B8B7B6B5B4B3FE
:104A1000B2B1B0AFAEADACABAAA9A8A8A7A6A5A4E9
:104A2000A3A3A2A1A09F9F9E9D9C9C9B9A999998AD
:104A30009797969595949393929191908F8F8E8E50
:104A40008D8C8C8B8B8A89898888878786858584DD
:104A500084838382828181800000FF070000F87FC9
:104A60004FEA41034FEA5353A3F58063D3F11E038A
:104A7000C8BFD3F1210C0CDD4FF0004242EAC12245
:104A800042EA505232FA03FC8CEAE17CACEBE17072
:104A90007047102BC4BF0020704703F5787CBCF131
:104AA000FF3F04D06FF0004282EA2100704770B5EA
:104AB00000F044F94992248000207047F2E700009A
:104AC0004FEA1153A3F58063D3F11E03A8BFD3F1BE
:104AD000200C08DB4FF0004242EAC12252EA505259
:104AE00032FA03F0704709420BD4102BC4BF0020E8
:104AF000704703F5787CBCF1FF3F05D04FF0FF30E5
:104B000070474FF00000704770B500F017F900BF14
:104B10004992248000207047F0E710F0004248BF1F
:104B20004042B0FA80F310FA03F10AD0C3F11D033A
:104B300003F580634FEA415002EB035202EBD121AF
:104B400070474FF000007047B0FA80F310FA03F19D
:104B50000AD0C3F11D0303F580634FEA41504FEAC9
:104B6000035202EBD12170474FF000007047000064
:104B700051EA030C17D41CF5801F58BFBCF5801FE9
:104B800000F10680994218BF704708BF90427047F5
:104B900007D711F5801F58BF13F5801F19D499420C
:104BA0007047894270471CF5801F08D5BCF5801FEF
:104BB000F7D58B4218BF704708BF824270474FF449
:104BC000001C1CEB410F38BF1CEB430F01D28B4282
:104BD000704770B500F0B2F8922449004FF00051D0
:104BE0004FF08053FFF7D8BDDFF848C170B51CEA1D
:104BF000111E1EBF1CEA13159EEA0C0F95EA0C0F3E
:104C000000F06F8081EA030423EA4C134EEAD47E5D
:104C100021EA4C1141F4801143F48013AE44A1FB0E
:104C2000024CA0FB0365AEF17F7E361955EB0C05F7
:104C3000A1FB034C4CF10003A0FB021C16EB0C067D
:104C4000654153F10003094218BF46F0010613F411
:104C5000007F0BD14FEA03314FEA0530340341EABC
:104C6000155140EA16506FF003020AE04FEAC321E3
:104C70004FEAC520F40241EA555140EA56506FF020
:104C8000020202EB2E4201EB025585EACE710AD0F8
:104C90005FEA440C18BF24F0004450F1000041F1D9
:104CA000000120EAD47040F2FE7C624500D270BD63
:104CB000A84214BF4FF080444FF04044002E08BF7C
:104CC0000024BEF1806FA8BFA1F1C041BDE87040D3
:104CD00080F282804FF0000001F1C04101F00041FC
:104CE00070479EEA0C0F0CEA131518BF95EA0C0FDB
:104CF00006D04FF0000081EA030E0EF0004170BDB7
:104D000000F01CF88900013E00F007B800F009B877
:104D10004FEA430C5FEA5C5C08D081EA030100F0D3
:104D20005BB84FEA410C5FEA5C5CF6D14FF00000E3
:104D3000014970470000FF070000F87F0EF1020EE6
:104D40002EF0030E5EF8046B364205D4012A43EBC5
:104D5000030515F5001F12D8012841EB010C1CF5C5
:104D6000001F0CD80ED14FEAD17C15F5001F0CEBBB
:104D70004C0C0CF1020C08BF4CEBD37C04E04FF060
:104D8000080C01E04FEAD37C0CEB4C0526FA05F643
:104D900006F00706B6F1040C06D20EEB860CBDE851
:104DA00070404CF0010C6047DFE80CF0090B020288
:104DB0004FF000414FF00000A1F5002170BD1946F1
:104DC0001046012851EB010418BFD4F5001484BF2C
:104DD000002001F0004170BD0808A0F500114FEA65
:104DE0003101704753EA010C17D41CF5801F58BFDE
:104DF000BCF5801F00F106808B4218BF704708BFCA
:104E00008242704707D713F5801F58BF11F5801FE6
:104E100019D48B4270479B4270471CF5801F08D500
:104E2000BCF5801FF7D5994218BF704708BF904264
:104E300070474FF4001C1CEB430F38BF1CEB410FB5
:104E400001D2994270470FB40CBC03BCFFF7C1BE3E
:104E500091EA030F10B581F000413FF5F5AB83F007
:104E6000004300F0EFB800002DE9F04101F5801C8F
:104E7000BCF5001FC0F2C3804FEA115C21EA0C515F
:104E80000CF1FD0C41F480115FEA5C0C0CF5C07C68
:104E900001D3400049413DA4890241EA9051870273
:104EA0008E0E0A0CA45D04FB04F602FB06F6C6F1A6
:104EB0004046A4FB0662F60D46EA422606FB06F4CF
:104EC000A4FB01235242C3F1404338BF5B1EA6FB43
:104ED00002420024E6FB0324D20B42EA4446A6FB2E
:104EE0000623A1FB02E2A3FB07E4A4184FF0000293
:104EF00052F10002E3FB01426442C2F1404E38BF6E
:104F0000AEF1010EA6FB04234FF00002E6FB0E32C9
:104F1000A2FB03464FF00004B61954F10004E2FB73
:104F20000264A1FB06E6A4FB07E816EB08064FF0B7
:104F3000000858F10008E4FB01687642C8F14058C7
:104F400038BFA8F10108A2FB06E4A3FB08E52D1970
:104F50004FF0000454F10004E2FB0854A1FB05E605
:104F6000A7FB04E818EB06084FF0000656F1000610
:104F7000E1FB048618F1200556F10006A809A8F106
:104F80001B08B10908F03F08B8F10A0F40EA866033
:104F90001CD901EB0C51BDE8F08100BFFCF5EEE837
:104FA000E2DDD8D3CFCBC7C3C0BDB9B6B4B1AEACC8
:104FB000A9A7A5A3A19F9D9B9A9896959392908F40
:104FC0008D8C8B898887868584838281A0FB00688D
:104FD00000FB01F208EB4208B8EB872807D534182C
:104FE00058EB0104D5D5401C51F10001D1E7341A2A
:104FF00078EB0104CDD4401E71F10001C9E75FEAEE
:105000004C0C5FEA9C5C0DD105D34FF0000001F021
:105010000041BDE8F081BDE8F04170B5FFF78EFEBC
:105020006DDBFFBEBDE8F0414FF000000049704766
:105030000000F87F10B591EA030F48BF83F00043EA
:105040003FF502AB841A71EB030C07D212198CF0F6
:10505000004C43EB0C03001B61EB0C01DFF8A4E1F7
:105060004FEA1154A4EB135C1EEA430F18BF9EEAEB
:10507000445F00F0B08023EA6E03524221EA0451FB
:10508000C3EB6E0338BF5B1EDCF1200E25D322FA82
:105090000CFE10EB0E0043FA0CFE41EB0E01CCF1BE
:1050A000200E03FA0EFE10EB0E0051F10001CCF1C0
:1050B000200E29D412FA0EF201EB0451BDE8104083
:1050C00058BF7047401C1CBFB2F1004F704700280A
:1050D0000CBF491C20F00100704712EB020E43EB9D
:1050E000030218BF4FF0010E4EEA4202ACF1200C51
:1050F000DCF11E0E54D943FA0CFE10EB0E0051F1F8
:10510000FF31CCF11E0ED5D50EF1010E12FA0EFEB6
:10511000404141EB010101EB445C5FEA5C5C10D96A
:1051200010EBDE7001EB045138BFBEF1004FBDE85B
:10513000104018BF704700280CBF491C20F0010028
:10514000704730D24FEAD42C11F5001124F40064DA
:105150001BD0B1FA81F20B3AA41AA41ED2F120039B
:10516000914030FA03F31943904001EBCC71002CCD
:1051700001EB0451BDE81040A8BF704701F1C041E8
:105180004FF0000001F000417047B0FA80F310FAD0
:1051900003F100D110BDE41A173C4805C90AE4E741
:1051A00001EB045110BD491001EB0451BDE8104062
:1051B0004FEA300002E04FF0000170474A0008BF9C
:1051C0000042F8D0B2F5001F28BF704701F000413F
:1051D0004FF0000070479EEA445F07D011EA5E0F6F
:1051E000BDE8104004BF002100207047BDE810401A
:1051F00070B5FFF7A3FD00BF40DFF63E83F000412E
:10520000104670470000E0FF43004FEAD30C4FEA1E
:105210003C0C43401FBF40070CF1605113F0FE4FA0
:1052200070471CF0006F03D100200CF00041704764
:105230000CF0004343EA507010B540EACC0000F097
:105240005EF900BF000000924FEA0001FFF7C4BD05
:105250004FF000414FF00000A1F500217047000021
:1052600090EA010F48BF81F0004100F1A481421A89
:105270003CBF801A89184FEAD0524FF07F4C1CEA8D
:10528000410FA2EBD15318BF9CEA026F00F03B80A4
:105290004FF0004C4CEA00204CEA012121FA03FCBB
:1052A00010EB0C0C1ED202F1FF325FEA1C2040EB27
:1052B000C25038BF70471CF07F0F4FEA400C18BF38
:1052C000BCF17F4F38BF7047C3F12003994008BF3E
:1052D00020F00100BCF17F4F38BF7047A0F1C04003
:1052E00000F053B94FEA3C00000A40EBC25028BF1F
:1052F0001CF0FF0F4FEA400CE6D018BFBCF17F4F07
:1053000038BF7047EAE79CEA026F05D010EA5C0FED
:1053100008BF00F00040704710B500F0F0F800BF83
:1053200064FBBE3E401058BFC0F14040491058BF1A
:10533000C1F140418142EFF30080704710F000411D
:1053400048BF4042B0FA80F310FA03F2C3F19D0364
:105350000BD051EAC35101EB1220530638BF7047FE
:1053600000F1010008BF20F001007047B0FA80F39F
:1053700010FA03F2C3F19D030AD0D90501EB122004
:10538000530638BF704700F1010008BF20F001004C
:105390007047000050EA010C00F113801CF5000F6B
:1053A00058BFBCF5000F01D48842704707D710F5ED
:1053B000000F58BF11F5000F15D48842704789427D
:1053C00070471CF5000F04D5BCF5000FF7D58142DE
:1053D00070474FF0807C1CEB400F38BF1CEB410F37
:1053E00001D28142704710B500F089F8922449003B
:1053F0004FF000504FF08051FFF794BF4FF47F0CF7
:105400001CEAD0121EBF1CEAD11392EA0C0F93EAD9
:105410000C0F00F0478090EA010F48BF42F4807201
:105420004FF0004C4CEA00204CEA012102EB030251
:10543000A0FB0113A2F50002002918BF43F00103ED
:105440005B0028BF4FEA330342EB22425FEA132C92
:105450004CEBC2502EBFBCEB436FB2F57C0F7047D4
:105460004FEA036CBCF1004F08BF20F00100B2F519
:105470007C0F38BF70470BD582F0FF0212F5803FDA
:10548000C8BF704700F1C040D8BF00F0004070476F
:1054900000F5000C5FEA4C0C48BF7047B0F1C0400B
:1054A00000F073B890EA010F0CEAD11348BF42F440
:1054B0008072624538BF634504D280EA010000F083
:1054C0000040704710B500F01AF800BF8900013E97
:1054D00000F007B800F009B85FEA410C5FEA1C6C05
:1054E00008D080EA010000F050B85FEA400C5FEAA3
:1054F0001C6CF6D14FF00040A0F5800070470EF113
:10550000020E2EF0030E5EF8044B244204D44FEA40
:105510004102B2F17F4F11D84FEA4003B3F17F4F00
:105520000CD80ED14FEAD07CB2F17F4F0CEB4C0C73
:105530000CF1020C08BF4CEBD17C04E04FF0080CDE
:1055400001E04FEAD17C0CEB4C0324FA03F404F0A5
:105550000704B4F1040C06D20EEB840CBDE8104035
:105560004CF0010C6047DFE80CF0070802024FF036
:105570000040A0F5800010BD0846420018BFD2F1DF
:10558000807288BF00F0004010BDFF2141EAD0507A
:10559000C005704780F0004090EA010F7FF567AECC
:1055A00081F0004100F007B890EA010F48BF81F098
:1055B00000413FF55CAE421A04D882F00042A0EBF5
:1055C000020011444FEAD0524FF07F4C1CEA410FC9
:1055D000A2EBD15318BF9CEA026F4AD04FF0004CA7
:1055E0004CEA00204CEA012121FA03FCB0EB0C0C40
:1055F0000FD412F0FE0F36D05FEA4C001DD500121A
:1056000040EBC25038BF70471CF03F0F18BF7047C7
:105610000BE0A2F101025FEA1C2040EBC25038BF50
:1056200070471CF07F0F18BF7047C3F120039940EB
:1056300014BF401E20F00100704780084FEA12237B
:1056400008BF7047B0FA80FCA2EB0C02CCF1280C2A
:1056500060FA0CF093EA122F04BF00EBC2507047BF
:105660004FEAC3707047130A5FEADC1008BF704747
:10567000F6E79CEA026F04D010EA5C0F08BF002036
:10568000704710B5FFF73BFF40DFF63E81F000406A
:1056900070470CF00F03092B08BF082000F0598059
:1056A0000A2B0BD0082B18BF704708BF1CF0400F07
:1056B0000AD04FF000004FF0000170471CF0400F7F
:1056C00018BF4FF0004070471CF0100F08D020F0BA
:1056D000704300F07F4242EAD3014FEA43707047C3
:1056E00000F0604021F07F4242EA000201F07F407A
:1056F00040EA727070474FF0FF0C4CF4E06C1CEA0B
:1057000011531CBF9CEA030C9445C2BFDA4201EB63
:1057100002517047002B0DD0BCF1000F0FD0002AB2
:1057200001F00041A4BF41F0E04141F07F614FF042
:105730000000704701F000414FF00000704750EA50
:1057400001334FF09B0C18BF4CF0806C7FF41CA809
:1057500070471CF4801F11D01CF4E02F03D06FEAB7
:10576000CC31490070474FF04050EFF3008222F0F7
:10577000704242EA000282F3008870474FF0000056
:105780007047000000000000000000000000000062
:1057900000003F400000000000000000300040001A
:1057A00030004000000009000BC03D000BC03D0070
:1057B000090018C024407FE022403180000018001A
:1057C00024C01B000D803240018003801C40274014
:1057D0001C80074000401000600000000000000036
:1057E00000000000000000001F802040402000005A
:1057F000402020401F8000000000090006001F809C
:10580000060009000000040004003F8004000400BA
:105810000000001000600000000000000000040014
:105820000400040004000400000000000040000028
:10583000000000000000002001C006003800400009
:1058400000001F802040204020401F8000000000FA
:1058500010403FC000400000000018C0214022401E
:1058600024401840000010802040244024401B8029
:10587000000002000D0011003FC0014000003C800C
:10588000244024402440238000001F8024402440E2
:105890003440038000003000200027C03800200082
:1058A00000001B802440244024401B8000001C007A
:1058B00022C0224022401F8000000000000008405B
:1058C0000000000000000000000004600000000074
:1058D0000000000004000A00110020804040090080
:1058E0000900090009000900000000004040208074
:1058F00011000A00040018002000234024001800B2
:1059000000001F802040274029401F400000004029
:1059100007C039000F0001C0004020403FC02440B4
:1059200024401B8000001F80204020402040308009
:10593000000020403FC0204020401F800000204049
:105940003FC024402E4030C0000020403FC02440D3
:105950002E00300000000F001080204022403380D5
:10596000020020403FC0040004003FC0204020400F
:1059700020403FC020402040000000602020202028
:105980003FC02000200020403FC024400B0030C01A
:10599000204020403FC020400040004000C03FC0A9
:1059A0003C0003C03C003FC0000020403FC00C4012
:1059B00023003FC020001F802040204020401F8047
:1059C000000020403FC024402400180000001F8039
:1059D0002140214020E01FA0000020403FC0244083
:1059E000260019C0004018C02440244022403180C5
:1059F0000000300020403FC0204030000000200068
:105A00003F80004000403F80200020003E0001C059
:105A1000070038002000380007C03C0007C03800ED
:105A20000000204039C0060039C02040000020009E
:105A3000384007C0384020000000304021C02640D8
:105A4000384020C00000000000007FE040204020DF
:105A50000000000070000C00038000400000000007
:105A6000402040207FE000000000000020004000B7
:105A700020000000000000100010001000100010B6
:105A800000100000000040000000000000000000C6
:105A900002800540054003C0004020003FC0044094
:105AA00004400380000000000380044004400640DE
:105AB000000000000380044024403FC0004000007C
:105AC00003800540054003400000000004401FC063
:105AD000244024402000000002E0055005500650FC
