:0A0A4500C0F9A4B0999282F88090E5
:1008DF00E4FAF9F812083C74452FF582740A3EF5D4
:0D08EF0083E493F5807F017E007D007C0096
:1008FC008F0F8E0E8D0D8C0CE4FFFEFDFCAB0FAA42
:10090C000EA90DA80CD31208CE4051E475130AF5AC
:10091C0012F511F510E4FFFEFDFCAB13AA12A911A0
:10092C00A810D31208CE401AE51324FFF513E512D4
:10093C0034FFF512E51134FFF511E51034FFF51015
:10094C0080D3E50F24FFF50FE50E34FFF50EE50D12
:0C095C0034FFF50DE50C34FFF50C809C19
:01096800226C
:100969008F0B8E0A8D098C08C290E47BE87A0312FA
:1009790008E17580FFD290C291E47BE87A03F9F827
:10098900AF0BAE0AAD09AC0812083CAC00AD01AE24
:1009990002AF037B641208DF7580FFD291C292E433
:1009A9007B64FAF9F8AF0BAE0AAD09AC0812083C42
:1009B900AC00AD01AE02AF037B0A1208DF7580FF00
:1009C900D292C293E47B0AFAF9F8AF0BAE0AAD09E9
:1009D900AC0812083C74452BF582740A3A1208EEE9
:0609E9007580FFD293228D
:1009EF00758901D2AFD2A8E47517D2751604F51523
:1009FF00F514AF17AE16AD15AC1412096920B7F286
:100A0F007F321208F620B715E5172401F517E435E4
:100A1F0016F516E43515F515E43514F51430B7FD54
:0A0A2F007F321208F620B7CA80FBE0
:03000000020A39B8
:0C0A3900787FE4F6D8FD7581170209EF04
:1008000075F008758200EF2FFFEE33FECD33CDCCAF
:1008100033CCC58233C5829BED9AEC99E582984032
:100820000CF582EE9BFEED9AFDEC99FC0FD5F0D60F
:10083000E4CEFBE4CDFAE4CCF9A88222B800C1B939
:100840000059BA002DEC8BF084CFCECDFCE5F0CB77
:10085000F97818EF2FFFEE33FEED33FDEC33FCEBB0
:1008600033FB10D703994004EB99FB0FD8E5E4F96B
:10087000FA227818EF2FFFEE33FEED33FDEC33FC58
:10088000C933C910D7059BE99A4007EC9BFCE99A4C
:10089000F90FD8E0E4C9FAE4CCFB2275F010EF2F91
:1008A000FFEE33FEED33FDCC33CCC833C810D70791
:1008B0009BEC9AE899400AED9BFDEC9AFCE899F8CC
:0E08C0000FD5F0DAE4CDFBE4CCFAE4C8F9225F
:1008CE00EB9FF5F0EA9E42F0E99D42F0E89C45F080
:0108DE0022F7
:00000001FF
